:100000000C9446000C948B000C9431010C94650008
:100010000C9465000C9465000C9465000C946500CC
:100020000C9465000C9465000C9465000C946500BC
:100030000C9465000C9465000C9465000C946500AC
:100040000C9465000C9465000C9465000C9465009C
:100050000C9465000C9465000C9465000C9465008C
:100060000C9465000C9465000C9465000C9465007C
:100070000C9465000C9465000C9465000C9465006C
:100080000C9465000C9465000C94650011241FBE4F
:10009000CFEFD0E1DEBFCDBF11E0A0E0B1E0E4EBF7
:1000A000F2E000E00BBF02C007900D92AA30B1074A
:1000B000D9F711E0AAE0B1E001C01D92AD30B1075F
:1000C000E1F70E94C3000C9458010C940000DF93E8
:1000D000CF9300D000D0CDB7DEB769837A838B830E
:1000E0009C8389819A81AB81BC810197A109B10967
:1000F00089839A83AB83BC8389819A81AB81BC81DC
:100100000097A105B10569F70F900F900F900F9020
:10011000CF91DF9108951F920F920FB60F9200902A
:100120005B000F9211248F939F93AF93BF93EF9334
:10013000FF93DF93CF93CDB7DEB780910A018F5F36
:1001400080930A0180910A01893011F410920A010A
:10015000A5E3B0E080910A01882F90E0FC01E05017
:10016000FF4F80818C93CF91DF91FF91EF91BF91F1
:10017000AF919F918F910F9000925B000F900FBEF7
:100180000F901F901895DF93CF93CDB7DEB7E4E3C0
:10019000F0E08FEF8083EAE3F0E08FEF8083E1E32C
:1001A000F0E08CEF808310920A01E9E5F0E083E053
:1001B0008083EAE6F0E083E08083AFE5B0E0EFE53E
:1001C000F0E0808180688C93E8E3F0E08FEE80833C
:1001D000A5E3B0E080910A01882F90E0FC01E05097
:1001E000FF4F80818C93EBE3F0E080910C018083E2
:1001F00010920B0131C0EBE3F0E080910B01282F4E
:1002000030E081E090E0022E02C0880F991F0A942E
:10021000E2F780958083A5E3B0E080910A01882F02
:1002200090E0FC01E050FF4F80818C9380910A01A7
:100230008F5F80930A0180910A01893011F4109236
:100240000A0164E670E080E090E00E94670080911F
:100250000B018F5F80930B0180910B01893058F265
:10026000C7CF1F920F920FB60F9200905B000F92B4
:1002700011248F939F93EF93FF93DF93CF93CDB789
:10028000DEB7E0E3F0E08081882F90E0827090702C
:100290000097B9F3CF91DF91FF91EF919F918F91EB
:1002A0000F9000925B000F900FBE0F901F9018955B
:0402B000F894FFCFF0
:0A02B400C0F9A4B0999282F880000E
:00000001FF
