:100000000C9446000C9465000C9465000C946500FB
:100010000C9465000C9465000C9465000C946500CC
:100020000C9465000C9465000C9465000C946500BC
:100030000C9465000C9465000C9465000C946500AC
:100040000C9467000C9465000C9465000C9465009A
:100050000C9465000C9465000C9465000C9465008C
:100060000C9465000C9465000C9465000C9465007C
:100070000C9465000C9465000C9465000C9465006C
:100080000C9465000C9465000C94650011241FBE4F
:10009000CFEFD0E1DEBFCDBF11E0A0E0B1E0E0EAFC
:1000A000F1E000E00BBF02C007900D92A030B10755
:1000B000D9F711E0A0E0B1E001C01D92A330B10773
:1000C000E1F70E94B2000C94CE000C9400001F9245
:1000D0000F920FB60F9200905B000F9211248F9336
:1000E0009F93EF93FF93DF93CF93CDB7DEB7E2E516
:1000F000F0E080E7808380910001909101010196FA
:100100009093010180930001809100019091010181
:100110008436910569F410920101109200018091DA
:100120000201882F90E0880F991F8160809302015F
:10013000809102018F3F19F48EEF80930201E8E372
:10014000F0E0809102018083CF91DF91FF91EF91E8
:100150009F918F910F9000925B000F900FBE0F90B8
:100160001F901895DF93CF93CDB7DEB7E7E3F0E0AC
:100170008FEF80838FEF80930201E2E5F0E080E76C
:100180008083E3E5F0E087E08083E7E5F0E081E06D
:100190008083EFE5F0E080E88083FFCFF894FFCF25
:00000001FF
