:100000000C9446000C9483000C94CE000C94F500E4
:100010000C945D000C945D000C945D000C945D00EC
:100020000C945D000C945D000C945D000C945D00DC
:100030000C945D000C945D000C945D000C945D00CC
:100040000C945D000C945D000C945D000C945D00BC
:100050000C945D000C945D000C945D000C945D00AC
:100060000C945D000C945D000C945D000C945D009C
:100070000C945D000C945D000C945D000C945D008C
:100080000C945D000C945D000C945D0011241FBE67
:10009000CFEFD0E1DEBFCDBF11E0A0E0B1E0ECE8F2
:1000A000F2E000E00BBF02C007900D92A030B10754
:1000B000D9F70E9409010C9444010C940000DF93CD
:1000C000CF9300D000D0CDB7DEB769837A838B831E
:1000D0009C8389819A81AB81BC810197A109B10977
:1000E00089839A83AB83BC8389819A81AB81BC81EC
:1000F0000097A105B10569F70F900F900F900F9031
:10010000CF91DF9108951F920F920FB60F9200903A
:100110005B000F9211242F933F934F935F936F9344
:100120007F938F939F93AF93BF93EF93FF93DF934F
:10013000CF930F92CDB7DEB7198216C0E5E3F0E09A
:100140008FEF808360EA76E881E090E00E945F00B4
:10015000E5E3F0E0108260EA76E881E090E00E945A
:100160005F0089818F5F89838981833038F30F90A5
:10017000CF91DF91FF91EF91BF91AF919F918F91BF
:100180007F916F915F914F913F912F910F900092CE
:100190005B000F900FBE0F901F9018951F920F924B
:1001A0000FB60F9200905B000F9211248F939F93D4
:1001B000EF93FF93DF93CF93CDB7DEB7E0E3F0E0AB
:1001C0008081882F90E0827090700097B9F3CF9172
:1001D000DF91FF91EF919F918F910F9000925B00C3
:1001E0000F900FBE0F901F9018951F920F920FB691
:1001F0000F9200905B000F9211248F93EF93FF9367
:10020000DF93CF93CDB7DEB7E5E3F0E08FEF8083E8
:10021000FFCFDF93CF930F92CDB7DEB7E4E3F0E0EB
:100220008FEF8083E1E3F0E088EF80838FEF8983B5
:10023000E9E5F0E087E08083EAE6F0E08AE28083A7
:10024000AFE5B0E0EFE5F0E0808180688C9360E599
:1002500073EC80E090E00E945F00E5E3F0E08981CC
:10026000808389818F3F19F48EEF8983F0CF898154
:10027000882F90E0880F991F8160898389818F3F43
:0C02800031F78EEF8983E3CFF894FFCFB5
:00000001FF
