:100000000C9446000C9458000C9458000C94580022
:100010000C9458000C9458000C9458000C94580000
:100020000C9458000C9458000C9458000C945800F0
:100030000C9458000C9458000C9458000C945800E0
:100040000C945A000C9458000C9458000C945800CE
:100050000C9458000C9458000C9458000C945800C0
:100060000C9458000C9458000C9458000C945800B0
:100070000C9458000C9458000C9458000C945800A0
:100080000C9458000C9458000C94580011241FBE76
:10009000CFEFD0E1DEBFCDBF11E0A0E0B1E001C005
:1000A0001D92A330B107E1F70E94A9000C94CA0089
:1000B0000C9400001F920F920FB60F9200905B00FD
:1000C0000F9211242F938F939F93EF93FF93DF93BE
:1000D000CF93CDB7DEB782E590E020E7FC01208327
:1000E000809100019091010101969093010180930C
:1000F000000180910001909101018436910569F41D
:10010000109201011092000180910201882F90E06D
:10011000880F991F816080930201809102018F3FB7
:1001200019F48EEF8093020188E390E020910201A0
:10013000FC012083CF91DF91FF91EF919F918F91EF
:100140002F910F9000925B000F900FBE0F901F90A9
:100150001895DF93CF93CDB7DEB787E390E02FEF0D
:10016000FC0120838FEF8093020182E590E020E77D
:10017000FC01208383E590E027E0FC01208387E5F4
:1001800090E021E0FC0120838FE590E020E8FC0175
:080190002083FFCFF894FFCF9C
:00000001FF
