:100000000C9446000C945D000C945D000C945D0013
:100010000C945D000C945D000C945D000C945D00EC
:100020000C945D000C945D000C945D000C945D00DC
:100030000C945D000C945D000C945D000C945D00CC
:100040000C945D000C945D000C945D000C945D00BC
:100050000C945D000C945D000C945D000C945D00AC
:100060000C945D000C945D000C945D000C945D009C
:100070000C945D000C945D000C945D000C945D008C
:100080000C945D000C945D000C945D0011241FBE67
:10009000CFEFD0E1DEBFCDBF11E0A0E0B1E0EAEFED
:1000A000F1E000E00BBF02C007900D92A030B10755
:1000B000D9F70E945F000C94FB000C940000EF92B3
:1000C000FF920F931F938FEF8ABB12B883B981E021
:1000D00095E5E92E2AEF30E0FF24F39402E014E0E6
:1000E000B8E0A0E170E260E450E8482F81B180956B
:1000F000803211F4EBBAFACF803409F05BC0FBBA5E
:1001000080E090E0F9013197F1F701968233910593
:10011000C9F70BBB80E090E0F9013197F1F7019648
:1001200082339105C9F71BBB80E090E0F90131975C
:10013000F1F7019682339105C9F7BBBB80E090E0EF
:10014000F9013197F1F7019682339105C9F7ABBBFD
:1001500080E090E0F9013197F1F701968233910543
:10016000C9F77BBB80E090E0F9013197F1F7019688
:1001700082339105C9F76BBB80E090E0F9013197BC
:10018000F1F7019682339105C9F75BBB80E090E0FF
:10019000F9013197F1F7019682339105C9F71BBA3E
:1001A00080E090E0F9013197F1F7019682339105F3
:1001B000C9F79CCF803809F099CF4BBB80E090E025
:1001C000F9013197F1F70196883C9105C9F7842F21
:1001D000880F41E009F089CF89CF20E030E04AEF75
:1001E00050E005C0FA013197F1F72F5F3F4F281714
:0A01F0003907C4F30895F894FFCF17
:00000001FF
