:100000000C9446000C9465000C9465000C946500FB
:100010000C9465000C9465000C9465000C946500CC
:100020000C9465000C9465000C946A0D0C946500AA
:100030000C9465000C9465000C9465000C94870585
:100040000C9465000C9465000C9465000C9465009C
:100050000C9465000C9465000C9465000C9465008C
:100060000C9465000C9465000C9465000C9465007C
:100070000C9465000C9465000C9465000C9465006C
:100080000C9465000C9465000C94650011241FBE4F
:10009000CFEFD0E1DEBFCDBF11E0A0E0B1E0E2E004
:1000A000FDE200E00BBF02C007900D92A037B10740
:1000B000D9F711E0A0E7B1E001C01D92A737B10761
:1000C000E1F70E94BD0B0C947F160C9400000F9377
:1000D0001F93DF93CF93CDB7DEB7E1970FB6F894B8
:1000E000DEBF0FBECDBF89AB88E390E028E330E0F0
:1000F000F90120812160FC0120838BE390E029A994
:10010000FC01208388E390E028E330E0F9012081BE
:100110002460FC01208380E090E0A0E8BFE38983B5
:100120009A83AB83BC8369817A818B819C8122E530
:1001300039E44DE950E40E944E0FDC01CB018D8380
:100140009E83AF83B88711E06D817E818F81988512
:1001500020E030E040E85FE30E94561188230CF075
:1001600010E0112319F081E08987A3C011E06D81AF
:100170007E818F81988520E030E04FE753E40E9434
:10018000F61018160CF010E0112309F489C06981EB
:100190007A818B819C8120E030E04AE754E40E9420
:1001A0004810DC01CB018A879B87AC87BD876A85B5
:1001B0007B858C859D8526E636E646E655E40E94DD
:1001C0004E0FDC01CB018E879F87A88BB98B11E086
:1001D0006E857F858889998920E030E040E85FE37B
:1001E0000E94561188230CF010E0112329F081E0C1
:1001F00090E09B8B8A8B46C011E06E857F85888955
:10020000998920E03FEF4FE757E40E94F610181657
:100210000CF010E0112361F16A857B858C859D854A
:1002200020E030E040E251E40E944E0FDC01CB01BF
:10023000BC01CD010E947A0DDC01CB019B8B8A8B26
:1002400012C080E791E09D8B8C8B8C899D898C01FD
:10025000C8010197F1F78C011D8B0C8B8A899B8952
:1002600001979B8B8A8B8A899B89009751F728C0BD
:100270006E857F85888999890E947A0DDC01CB0182
:100280009B8B8A8B8A899B899F8B8E8B8E899F897A
:100290008C01F8013197F1F78F011F8B0E8B10C085
:1002A0006D817E818F8198850E947A0DDC01CB0162
:1002B00089878985888F888D182F1A95F1F7188F6F
:1002C00088E390E028E330E0F90120812B7FFC01F6
:1002D000208380E090E0A8E4B2E4898F9A8FAB8F0E
:1002E000BC8F698D7A8D8B8D9C8D22E539E44DE92B
:1002F00050E40E944E0FDC01CB018D8F9E8FAF8F9B
:10030000B8A311E06D8D7E8D8F8D98A120E030E037
:1003100040E85FE30E94561188230CF010E011239F
:1003200019F081E089A3A3C011E06D8D7E8D8F8DC2
:1003300098A120E030E04FE753E40E94F610181631
:100340000CF010E0112309F489C0698D7A8D8B8D32
:100350009C8D20E030E04AE754E40E944810DC0124
:10036000CB018AA39BA3ACA3BDA36AA17BA18CA153
:100370009DA126E636E646E655E40E944E0FDC01D6
:10038000CB018EA39FA3A8A7B9A711E06EA17FA15F
:1003900088A599A520E030E040E85FE30E9456116F
:1003A00088230CF010E0112329F081E090E09BA756
:1003B0008AA746C011E06EA17FA188A599A520E07B
:1003C0003FEF4FE757E40E94F61018160CF010E0CC
:1003D000112361F16AA17BA18CA19DA120E030E0F5
:1003E00040E251E40E944E0FDC01CB01BC01CD0183
:1003F0000E947A0DDC01CB019BA78AA712C080E77F
:1004000091E09DA78CA78CA59DA58C01C8010197A3
:10041000F1F78C011DA70CA78AA59BA501979BA7A7
:100420008AA78AA59BA5009751F728C06EA17FA136
:1004300088A599A50E947A0DDC01CB019BA78AA70C
:100440008AA59BA59FA78EA78EA59FA58C01F801C5
:100450003197F1F78F011FA70EA710C06D8D7E8D0C
:100460008F8D98A10E947A0DDC01CB0189A389A10F
:1004700088AB88A9182F1A95F1F718ABE1960FB63B
:10048000F894DEBF0FBECDBFCF91DF911F910F91CA
:1004900008950F931F93DF93CF93CDB7DEB7A79740
:1004A0000FB6F894DEBF0FBECDBF8FA388E390E0F8
:1004B00028E330E0F90120812E7FFC0120838BE3CB
:1004C00090E02FA1FC01208388E390E028E330E056
:1004D000F90120812460FC01208380E090E0A0E805
:1004E000BFE389839A83AB83BC8369817A818B81E3
:1004F0009C8122E539E44DE950E40E944E0FDC0175
:10050000CB018D839E83AF83B88711E06D817E819F
:100510008F81988520E030E040E85FE30E9456112B
:1005200088230CF010E0112319F081E08987A3C023
:1005300011E06D817E818F81988520E030E04FE76A
:1005400053E40E94F61018160CF010E0112309F481
:1005500089C069817A818B819C8120E030E04AE703
:1005600054E40E944810DC01CB018A879B87AC874A
:10057000BD876A857B858C859D8526E636E646E6C1
:1005800055E40E944E0FDC01CB018E879F87A88B1C
:10059000B98B11E06E857F858889998920E030E0EC
:1005A00040E85FE30E94561188230CF010E011230D
:1005B00029F081E090E09B8B8A8B46C011E06E852C
:1005C0007F858889998920E03FEF4FE757E40E94B3
:1005D000F61018160CF010E0112361F16A857B8586
:1005E0008C859D8520E030E040E251E40E944E0F72
:1005F000DC01CB01BC01CD010E947A0DDC01CB01F5
:100600009B8B8A8B12C080E791E09D8B8C8B8C89B1
:100610009D898C01C8010197F1F78C011D8B0C8B12
:100620008A899B8901979B8B8A8B8A899B890097F2
:1006300051F728C06E857F85888999890E947A0D37
:10064000DC01CB019B8B8A8B8A899B899F8B8E8B4C
:100650008E899F898C01F8013197F1F78F011F8BEB
:100660000E8B10C06D817E818F8198850E947A0DDE
:10067000DC01CB0189878985888F888D182F1A9591
:10068000F1F7188F88E390E028E330E0F90120814A
:100690002B7FFC01208380E090E0A0E0B0E4898F14
:1006A0009A8FAB8FBC8F698D7A8D8B8D9C8D26E652
:1006B00036E646E655E40E944E0FDC01CB018D8FF5
:1006C0009E8FAF8FB8A311E06D8D7E8D8F8D98A119
:1006D00020E030E040E85FE30E94561188230CF0F0
:1006E00010E0112329F081E090E09AA389A346C08D
:1006F00011E06D8D7E8D8F8D98A120E03FEF4FE74B
:1007000057E40E94F61018160CF010E0112361F166
:10071000698D7A8D8B8D9C8D20E030E040E251E434
:100720000E944E0FDC01CB01BC01CD010E947A0D6D
:10073000DC01CB019AA389A312C080E791E09CA3BE
:100740008BA38BA19CA18C01C8010197F1F78C01AF
:100750001CA30BA389A19AA101979AA389A389A19C
:100760009AA1009751F717C06D8D7E8D8F8D98A13E
:100770000E947A0DDC01CB019AA389A389A19AA1D9
:100780009EA38DA38DA19EA18C01F8013197F1F755
:100790008F011EA30DA3A7960FB6F894DEBF0FBE60
:1007A000CDBFCF91DF911F910F910895DF93CF932C
:1007B00000D0CDB7DEB789836A838A81882329F484
:1007C000898180580E94490217C08A81813029F4AA
:1007D000898180540E9449020FC08A81823029F4A5
:1007E00089818C560E94490207C08A81833021F496
:1007F00089818C520E9449020F900F90CF91DF9116
:100800000895DF93CF9300D0CDB7DEB79A83898365
:100810000CC089819A81FC01208189819A8101968D
:100820009A838983822F0E94670089819A81FC01C3
:100830008081882371F70F900F90CF91DF910895F9
:100840000F931F93DF93CF93CDB7DEB76C970FB69F
:10085000F894DEBF0FBECDBF8AE390E02FEFFC011E
:10086000208387E390E027E0FC01208380E090E094
:10087000A0EFB1E489839A83AB83BC8369817A81D9
:100880008B819C8126E636E646E655E40E944E0FB3
:10089000DC01CB018D839E83AF83B88711E06D812E
:1008A0007E818F81988520E030E040E85FE30E9400
:1008B000561188230CF010E0112329F081E090E01C
:1008C0009A87898746C011E06D817E818F819885E6
:1008D00020E03FEF4FE757E40E94F61018160CF0A7
:1008E00010E0112361F169817A818B819C8120E084
:1008F00030E040E251E40E944E0FDC01CB01BC012C
:10090000CD010E947A0DDC01CB019A87898712C044
:1009100080E791E09C878B878B859C858C01C80143
:100920000197F1F78C011C870B8789859A850197C0
:100930009A87898789859A85009751F717C06D81B5
:100940007E818F8198850E947A0DDC01CB019A8788
:10095000898789859A859E878D878D859E858C015F
:10096000F8013197F1F78F011E870D8788E30E9408
:10097000490288E30E94490288E30E9449028EE00E
:100980000E94490286E00E94490281E00E944902D9
:1009900080E090E0A0E8BFE38F87988BA98BBA8BAB
:1009A0006F85788989899A8926E636E646E655E490
:1009B0000E944E0FDC01CB018B8B9C8BAD8BBE8BD1
:1009C00011E06B897C898D899E8920E030E040E8C8
:1009D0005FE30E94561188230CF010E0112329F0E8
:1009E00081E090E0988F8F8B46C011E06B897C8905
:1009F0008D899E8920E03FEF4FE757E40E94F61073
:100A000018160CF010E0112361F16F85788989893F
:100A10009A8920E030E040E251E40E944E0FDC0170
:100A2000CB01BC01CD010E947A0DDC01CB01988F76
:100A30008F8B12C080E791E09A8F898F898D9A8D74
:100A40008C01C8010197F1F78C011A8F098F8F89EA
:100A5000988D0197988F8F8B8F89988D009751F77C
:100A600017C06B897C898D899E890E947A0DDC0173
:100A7000CB01988F8F8B8F89988D9C8F8B8F8B8DCF
:100A80009C8D8C01F8013197F1F78F011C8F0B8F32
:100A90006C960FB6F894DEBF0FBECDBFCF91DF913D
:100AA0001F910F910895DF93CF93CDB7DEB785E403
:100AB00090E0FC01108285E490E025E430E0F9014B
:100AC00020812860FC01208385E490E025E430E06B
:100AD000F90120812061FC01208385E490E025E478
:100AE00030E0F90120812560FC01208383E490E05F
:100AF0002AEFFC01208387E590E027E530E0F9014B
:100B000020812064FC012083CF91DF9108951F9202
:100B10000F920FB60F9200905B000F9211242F934B
:100B20003F938F939F93EF93FF93DF93CF93CDB733
:100B3000DEB782E690E0FC01108280917201882F7E
:100B400090E081309105F9F0823091051CF4009716
:100B500041F050C08230910541F183309105C1F1DF
:100B600049C083E290E020917301222F30E02B5C9A
:100B70003E4FF9012081FC01208382E690E021E0D4
:100B8000FC01208337C083E290E020917401222F82
:100B900030E02B5C3E4FF9012081FC01208382E68E
:100BA00090E022E0FC01208325C083E290E02091C8
:100BB0007501222F30E02B5C3E4FF90120812F7709
:100BC000FC01208382E690E024E0FC01208312C037
:100BD00083E290E020917601222F30E02B5C3E4FA3
:100BE000F9012081FC01208382E690E028E0FC01ED
:100BF00020830000809172018F5F80937201809149
:100C00007201843010F010927201CF91DF91FF9148
:100C1000EF919F918F913F912F910F9000925B00E8
:100C20000F900FBE0F901F9018950F931F93DF9397
:100C3000CF93CDB7DEB7C156D0400FB6F894DEBF24
:100C40000FBECDBF8FEF898384E390E0FC0110825B
:100C500085E390E02FEFFC01208381E390E02FEF0C
:100C6000FC01208387E390E02FEFFC01208388E3E1
:100C700090E0FC01108284E390E028E0FC012083F6
:100C800085E390E025E330E0F9012081277FFC0136
:100C9000208380E090E0A0E8BFE38A839B83AC835D
:100CA000BD836A817B818C819D8122E539E44DE998
:100CB00050E40E944E0FDC01CB018E839F83A887F6
:100CC000B98711E06E817F818885998520E030E0C9
:100CD00040E85FE30E94561188230CF010E01123D6
:100CE00019F081E08A87A3C011E06E817F81888539
:100CF000998520E030E04FE753E40E94F610181683
:100D00000CF010E0112309F489C06A817B818C8189
:100D10009D8120E030E04AE754E40E944810DC0165
:100D2000CB018B879C87AD87BE876B857C858D8546
:100D30009E8526E636E646E655E40E944E0FDC0127
:100D4000CB018F87988BA98BBA8B11E06F8578893F
:100D500089899A8920E030E040E85FE30E945611DB
:100D600088230CF010E0112329F081E090E09C8BA7
:100D70008B8B46C011E06F85788989899A8920E03C
:100D80003FEF4FE757E40E94F61018160CF010E002
:100D9000112361F16B857C858D859E8520E030E097
:100DA00040E251E40E944E0FDC01CB01BC01CD01B9
:100DB0000E947A0DDC01CB019C8B8B8B12C080E7EB
:100DC00091E09E8B8D8B8D899E898C01C801019746
:100DD000F1F78C011E8B0D8B8B899C8901979C8B65
:100DE0008B8B8B899C89009751F728C06F857889F8
:100DF00089899A890E947A0DDC01CB019C8B8B8BAF
:100E00008B899C89988F8F8B8F89988D8C01F801A5
:100E10003197F1F78F01188F0F8B10C06E817F8192
:100E2000888599850E947A0DDC01CB018A878A85A5
:100E3000898F898D182F1A95F1F7198F83E390E028
:100E4000FC018081882F90E081709070009761F4A0
:100E500081E3898382E390E021E0FC01208383E445
:100E600090E02BE1FC01208383E390E0FC01808192
:100E7000882F90E082709070009761F482E38983FC
:100E800082E390E022E0FC01208383E490E028E10B
:100E9000FC01208383E390E0FC018081882F90E0B7
:100EA00084709070009761F483E3898382E390E01B
:100EB00024E0FC01208383E490E026E1FC01208310
:100EC00084E390E0FC01108285E390E02FEFFC01C9
:100ED000208384E390E020E1FC01208385E390E01F
:100EE00025E330E0F90120812F7EFC01208380E0A2
:100EF00090E0A0EAB0E48A8F9B8FAC8FBD8F6A8DA3
:100F00007B8D8C8D9D8D22E539E44DE950E40E9466
:100F10004E0FDC01CB018E8F9F8FA8A3B9A311E0E8
:100F20006E8D7F8D88A199A120E030E040E85FE3DD
:100F30000E94561188230CF010E0112319F081E073
:100F40008AA3A3C011E06E8D7F8D88A199A120E0B6
:100F500030E04FE753E40E94F61018160CF010E052
:100F6000112309F489C06A8D7B8D8C8D9D8D20E0C5
:100F700030E04AE754E40E944810DC01CB018BA327
:100F80009CA3ADA3BEA36BA17CA18DA19EA126E6CF
:100F900036E646E655E40E944E0FDC01CB018FA3F6
:100FA00098A7A9A7BAA711E06FA178A589A59AA5C6
:100FB00020E030E040E85FE30E94561188230CF007
:100FC00010E0112329F081E090E09CA78BA746C098
:100FD00011E06FA178A589A59AA520E03FEF4FE722
:100FE00057E40E94F61018160CF010E0112361F17E
:100FF0006BA17CA18DA19EA120E030E040E251E4F4
:101000000E944E0FDC01CB01BC01CD010E947A0D84
:10101000DC01CB019CA78BA712C080E791E09EA7C3
:101020008DA78DA59EA58C01C8010197F1F78C01B4
:101030001EA70DA78BA59CA501979CA78BA78BA589
:101040009CA5009751F728C06FA178A589A59AA5FE
:101050000E947A0DDC01CB019CA78BA78BA59CA5D8
:1010600098AB8FA78FA598A98C01F8013197F1F75C
:101070008F0118AB0FA710C06E8D7F8D88A199A12D
:101080000E947A0DDC01CB018AA38AA189AB89A9D0
:10109000182F1A95F1F719AB83E390E0FC018081DA
:1010A000882F90E081709070009761F484E38983C9
:1010B00082E390E028E0FC01208383E490E024E1D7
:1010C000FC01208383E390E0FC018081882F90E085
:1010D00082709070009761F485E3898382E390E0E9
:1010E00020E1FC01208383E490E022E1FC012083E5
:1010F00083E390E0FC018081882F90E08470907001
:10110000009761F486E3898382E390E020E2FC01AA
:10111000208383E490E020E1FC01208384E390E0DD
:10112000FC01108285E390E02FEFFC01208384E333
:1011300090E020E2FC01208385E390E025E330E0AD
:10114000F90120812F7DFC01208380E090E0A0EA5E
:10115000B0E48AAB9BABACABBDAB6AA97BA98CA955
:101160009DA922E539E44DE950E40E944E0FDC01CF
:10117000CB018EAB9FABA8AFB9AF11E06EA97FA931
:1011800088AD99AD20E030E040E85FE30E94561161
:1011900088230CF010E0112319F081E08AAFE6C03B
:1011A00011E06EA97FA988AD99AD20E030E04FE74E
:1011B00053E40E94F61018160CF010E0112309F405
:1011C000CCC06AA97BA98CA99DA920E030E04AE7A0
:1011D00054E40E944810DC01CB018BAF9CAFADAF53
:1011E000BEAF8E01015C1F4F6BAD7CAD8DAD9EAD72
:1011F00026E636E646E655E40E944E0FDC01CB01BA
:10120000F80180839183A283B383CE01CF9611E04E
:10121000FC01608171818281938120E030E040E8AF
:101220005FE30E94561188230CF010E0112349F06F
:10123000CE018D5B9F4F21E030E0FC0131832083A4
:101240006EC0CE01CF9611E0FC0160817181828178
:10125000938120E03FEF4FE757E40E94F610181605
:101260000CF010E0112309F449C06BAD7CAD8DADDD
:101270009EAD20E030E040E251E40E944E0FDC01E0
:10128000CB018E010D5B1F4FBC01CD010E947A0D79
:10129000DC01CB01F8019183808327C0CE018B5BF9
:1012A0009F4F20E731E0FC0131832083CE018B5B2F
:1012B0009F4FFC01808191818C01C8010197F1F75A
:1012C0008C01CE018B5B9F4FFC0111830083CE010B
:1012D0008D5B9F4F9E012D5B3F4FF9012081318136
:1012E00021503040FC0131832083CE018D5B9F4F24
:1012F000FC0180819181009789F64BC08E010D5BC6
:101300001F4FCE01CF96FC01608171818281938154
:101310000E947A0DDC01CB01F80191838083CE011C
:10132000895B9F4F9E012D5B3F4FF90120813181E9
:10133000FC0131832083CE01895B9F4FFC018081BA
:1013400091818C01C8010197F1F78C01CE01895B75
:101350009F4FFC01118300831CC06EA97FA988AD3B
:1013600099AD0E947A0DDC01CB018AAFCE01875B7B
:101370009F4F2AADFC012083CE01875B9F4FFC016C
:101380008081182F1A95F1F7CE01875B9F4FFC01E2
:10139000108383E390E0FC018081882F90E08170CE
:1013A0009070009761F487E3898382E390E020E402
:1013B000FC01208383E490E02EE0FC01208383E3A2
:1013C00090E0FC018081882F90E0827090700097FF
:1013D00061F488E3898382E390E020E8FC012083C4
:1013E00083E490E02DE0FC01208383E390E0FC01A6
:1013F0008081882F90E084709070009731F489E3A9
:10140000898382E390E0FC01108284E390E0FC0198
:10141000108285E390E02FEFFC01208384E390E0CD
:1014200020E4FC01208385E390E025E330E0F9012E
:1014300020812F7BFC0120839E01265B3F4F80E0B3
:1014400090E0A0EAB0E4F90180839183A283B383A2
:101450008E01025B1F4FCE01865B9F4FFC016081B6
:1014600071818281938122E539E44DE950E40E9443
:101470004E0FDC01CB01F80180839183A283B383FB
:10148000CE01825B9F4F11E0FC01608171818281FE
:10149000938120E030E040E85FE30E94561188230A
:1014A0000CF010E0112339F0CE018E5A9F4F21E04D
:1014B000FC01208305C1CE01825B9F4F11E0FC013E
:1014C000608171818281938120E030E04FE753E4B5
:1014D0000E94F61018160CF010E0112309F4DFC07A
:1014E000CE01865B9F4FFC01608171818281938177
:1014F00020E030E04AE754E40E944810DC01CB01D0
:101500009E012D5A3F4FF90180839183A283B383BB
:101510008E01095A1F4FCE018D5A9F4FFC016081E9
:1015200071818281938126E636E646E655E40E9483
:101530004E0FDC01CB01F80180839183A283B3833A
:10154000CE01895A9F4F11E0FC0160817181828137
:10155000938120E030E040E85FE30E945611882349
:101560000CF010E0112349F0CE01855A9F4F21E085
:1015700030E0FC013183208374C0CE01895A9F4F33
:1015800011E0FC01608171818281938120E03FEF55
:101590004FE757E40E94F61018160CF010E01123E4
:1015A00009F44DC0CE018D5A9F4FFC0160817181BD
:1015B0008281938120E030E040E251E40E944E0FAE
:1015C000DC01CB018E01055A1F4FBC01CD010E94E9
:1015D0007A0DDC01CB01F8019183808327C0CE0115
:1015E000835A9F4F20E731E0FC0131832083CE01F5
:1015F000835A9F4FFC01808191818C01C801019722
:10160000F1F78C01CE01835A9F4FFC0111830083B7
:10161000CE01855A9F4F9E01255A3F4FF9012081E7
:10162000318121503040FC0131832083CE01855A25
:101630009F4FFC0180819181009789F658C08E01EF
:10164000055A1F4FCE01895A9F4FFC01608171815D
:10165000828193810E947A0DDC01CB01F801918394
:101660008083CE01815A9F4F9E01255A3F4FF90139
:1016700020813181FC0131832083CE01815A9F4F2B
:10168000FC01808191818C01C8010197F1F78C01E7
:10169000CE01815A9F4FFC011183008328C08E0127
:1016A0000E5A1F4FCE01825B9F4FFC0160817181FA
:1016B000828193810E947A0DDC01CB01F801808345
:1016C000CE018F599F4F9E012E5A3F4FF901208125
:1016D000FC012083CE018F599F4FFC018081182F80
:1016E0001A95F1F7CE018F599F4FFC01108383E3C8
:1016F00090E0FC018081882F90E0817090700097CD
:1017000031F481E4898382E390E0FC01108283E379
:1017100090E0FC018081882F90E0827090700097AB
:1017200031F480E3898382E390E0FC01108283E35B
:1017300090E0FC018081882F90E084709070009789
:1017400031F482E4898382E390E0FC01108284E337
:1017500090E0FC01108285E390E02FEFFC012083F4
:101760008981CF59DF4F0FB6F894DEBF0FBECDBFD2
:10177000CF91DF911F910F9108950F931F93DF93E6
:10178000CF93CDB7DEB7EE970FB6F894DEBF0FBE9E
:10179000CDBF82E290E02FEFFC01208381E690E054
:1017A0002FE0FC01208383E590E02CEDFC012083F9
:1017B00081E590E023E2FC01208387E590E022E0D0
:1017C000FC0120838FE590E020E8FC0120830E944B
:1017D000150689830E94200480E060E00E94D60301
:1017E00080E091E00E94010480E061E00E94D60365
:1017F00084E191E00E94010480E090E0AAEFB4E46B
:101800008D839E83AF83B8876D817E818F8198851C
:1018100026E636E646E655E40E944E0FDC01CB0193
:1018200089879A87AB87BC8711E069857A858B8524
:101830009C8520E030E040E85FE30E945611882359
:101840000CF010E0112329F081E090E09E878D8755
:1018500046C011E069857A858B859C8520E03FEF45
:101860004FE757E40E94F61018160CF010E0112311
:1018700061F16D817E818F81988520E030E040E2CA
:1018800051E40E944E0FDC01CB01BC01CD010E944E
:101890007A0DDC01CB019E878D8712C080E791E035
:1018A000988B8F878F8598898C01C8010197F1F7F4
:1018B0008C01188B0F878D859E8501979E878D875C
:1018C0008D859E85009751F717C069857A858B8530
:1018D0009C850E947A0DDC01CB019E878D878D85CA
:1018E0009E859A8B898B89899A898C01F801319719
:1018F000F1F78F011A8B098B80E060E00E94D6031C
:1019000084E291E00E9401040E94530578940E94B1
:1019100015068C8399818C81981739F18C818033DD
:1019200010F18C818A33F8F482E090E09B838A8303
:1019300012C08A819B8101962A813B812D583E4F9E
:10194000F90120818D589E4FFC0120838A819B8163
:1019500001979B838A838A819B81992354F78C8189
:101960008F70809373018C81898380E061E00E9495
:10197000D6038C81803348F18C81873430F58C819B
:10198000282F30E000D000D000D08DB79EB7019650
:10199000AE014F5D5F4FFC015183408345E451E050
:1019A000FC0153834283FC01358324830E949F13EF
:1019B0008DB79EB706960FB6F8949EBF0FBE8DBF2B
:1019C000CE0181960E94010404C086E591E00E9448
:1019D000010480E090E0A8ECB2E48B8B9C8BAD8B93
:1019E000BE8B6B897C898D899E8926E636E646E624
:1019F00055E40E944E0FDC01CB018F8B988FA98F8D
:101A0000BA8F11E06F89788D898D9A8D20E030E052
:101A100040E85FE30E94561188230CF010E0112388
:101A200029F081E090E09C8F8B8F46C011E06F8998
:101A3000788D898D9A8D20E03FEF4FE757E40E9423
:101A4000F61018160CF010E0112361F16B897C89F7
:101A50008D899E8920E030E040E251E40E944E0FE3
:101A6000DC01CB01BC01CD010E947A0DDC01CB0170
:101A70009C8F8B8F12C080E791E09E8F8D8F8D8D14
:101A80009E8D8C01F8013197F1F78F011E8F0D8F1C
:101A90008B8D9C8D01979C8F8B8F8B8D9C8D009750
:101AA00051F735CF6F89788D898D9A8D0E947A0D87
:101AB000DC01CB019C8F8B8F8B8D9C8D98A38F8F9E
:101AC0008F8D98A18C01C8010197F1F78C0118A3A3
:101AD0000F8F1DCF1F920F920FB60F921124DF931D
:101AE000CF93CDB7DEB7CF91DF910F900FBE0F90A0
:101AF0001F901895EF92FF920F931F937B018C011B
:101B000020E030E040E05FE40E94261187FD11C034
:101B1000C801B70120E030E040E05FE40E941D0F03
:101B20000E9486119B01AC0120503040404050483B
:101B300006C0C801B7010E9486119B01AC01B90122
:101B4000CA011F910F91FF90EF900895A0E0B0E0BF
:101B5000ECEAFDE00C946C13FC01EA018081823018
:101B600008F438C1DB019C91923008F430C1843014
:101B700059F4943009F02EC1918111968C911197EE
:101B8000981709F021C126C1943009F420C1923080
:101B9000B1F4823009F01EC1CA01AF0128E0DA01B8
:101BA0000D90AD01DC010D92CD012150C1F7DB019B
:101BB00011968C9111979181892389830AC1823072
:101BC00009F405C1C280D380DB0112966D907C9030
:101BD000139724813581468157811496ED90FD90AD
:101BE0000D911C911797C601861997095C0197FF03
:101BF00004C0AA24BB24A81AB90AB0E2AB16B104E7
:101C00000CF061C0181619066CF5370148010A2C52
:101C100004C096948794779467940A94D2F781E0ED
:101C200090E0A0E0B0E00A2C04C0880F991FAA1F22
:101C3000BB1F0A94D2F70197A109B1098E219F21F8
:101C4000A023B123EE24FF248701E3940097A1058C
:101C5000B10519F4EE24FF248701E628F7280829A6
:101C600019293CC00097D1F1CA0CDB1C39014A018B
:101C70000A2C04C096948794779467940A94D2F7B8
:101C800081E090E0A0E0B0E00A2C04C0880F991F2A
:101C9000AA1FBB1F0A94D2F70197A109B109822399
:101CA0009323A423B52321E030E040E050E00097E7
:101CB000A105B10519F420E030E0A9012629372952
:101CC000482959290BC06C147D0424F4EE24FF2408
:101CD000870104C0630120E030E0A9018181FB019C
:101CE0009181891709F445C0882349F0D801C701BB
:101CF000821B930BA40BB50B9C01AD0104C02E19E4
:101D00003F09400B510B57FD04C01982DB82CA8288
:101D10000BC081E08983DB82CA8250954095309563
:101D200021953F4F4F4F5F4F2C833D834E835F8301
:101D30000DC0880F991FAA1FBB1F8C839D83AE8384
:101D4000BF838A819B8101979B838A838C819D813C
:101D5000AE81BF819C01AD012150304040405040D8
:101D60002F3FEFEF3E07EFEF4E07EFE35E0708F37D
:101D70000BC08983DB82CA822E0D3F1D401F511F7D
:101D80002C833D834E835F8383E088832C813D8158
:101D90004E815F8157FF1DC0DA01C90181709070CB
:101DA000A070B0705695479537952795822B932B49
:101DB000A42BB52B8C839D83AE83BF838A819B81AB
:101DC00001969B838A8305C0E7E6F1E003C0FB012F
:101DD00001C0FE01CF01CDB7DEB7EEE00C94881351
:101DE000A0E2B0E0E6EFFEE00C94741369837A831E
:101DF0008B839C832D833E834F83588789E0E82E15
:101E0000F12CEC0EFD1ECE010196B7010E94A61228
:101E10008E010F5E1F4FCE010596B8010E94A612DB
:101E2000C701B801AE01475E5F4F0E94A60D0E9438
:101E3000D811A096E6E00C949013A0E2B0E0E3E2A3
:101E4000FFE00C94741369837A838B839C832D83C6
:101E50003E834F8358878E01075F1F4FCE01019647
:101E6000B8010E94A61291E1E92EF12CEC0EFD1EA4
:101E7000CE010596B7010E94A6128A8991E08927B2
:101E80008A8BC801B701AE01475E5F4F0E94A60D65
:101E90000E94D811A096E6E00C949013A0E2B0E066
:101EA000E4E5FFE00C94681369837A838B839C8359
:101EB0002D833E834F835887CE010196BE01675F15
:101EC0007F4F0E94A612CE010596BE016F5E7F4F26
:101ED0000E94A6129985923078F089898230C0F0EC
:101EE000943019F4823041F4CBC0843019F492302C
:101EF00079F4C6C0923051F481E02A859A89291775
:101F000009F480E08A87CE010996BCC0823051F482
:101F100081E02A859A89291709F480E08A8BCE010D
:101F20004196B0C06D847E848F849888ED88FE8849
:101F30000F89188DE0E2F0E080E090E0DC01AA2457
:101F4000BB24650120E030E0A901B301617070702D
:101F500061157105D1F02E0D3F1D401F511F150158
:101F60002601280E391E4A1E5B1E81E090E0A0E08B
:101F7000B0E02E153F054007510718F080E090E0D3
:101F8000DC01820D931DA41DB51DAA0CBB1CCC1C2D
:101F9000DD1C17FF09C061E0262E312C412C512C8D
:101FA000A228B328C428D528319749F0EE0CFF1C8D
:101FB000001F111F9694879477946794C6CF6B89FE
:101FC0007C89EB85FC856E0F7F1F6E5F7F4F7C8F5A
:101FD0006B8F61E0EA857A89E71709F460E06A8F20
:101FE0006B8D7C8D10C0FC01E170F070309729F092
:101FF00056954795379527955068B695A795979527
:1020000087956F5F7F4FB7FDEECF0CC0880F991F8C
:10201000AA1FBB1F57FD8160220F331F441F551F8E
:10202000615070408030E0E09E07E0E0AE07E0E401
:10203000BE0760F36B8F7C8F6FE7E62EF12C012DCE
:10204000112DE822F9220A231B2360E4E616F1048D
:102050000105110561F487FD0AC02115310541050F
:10206000510529F0805C9F4FAF4FBF4F80788D8F17
:102070009E8FAF8FB8A383E0898FCE01499602C0AF
:1020800087E691E00E94D811A096E2E10C948413B7
:10209000A8E1B0E0EEE4F0E10C94701369837A8378
:1020A0008B839C832D833E834F8358878E01075FEC
:1020B0001F4FCE010196B8010E94A61281E1E82EC1
:1020C000F12CEC0EFD1ECE010596B7010E94A61262
:1020D0009985923008F483C08989823008F47BC0E6
:1020E0002A853A8923272A87943011F0923021F4E7
:1020F000981709F06CC071C0843039F41D861E86B3
:102100001F86188A1C861B866AC0823019F484E0F8
:10211000898765C08B859C852B893C89821B930BA5
:102120009C878B872D853E854F855889ED88FE8855
:102130000F89188D2E153F054007510738F4220FDF
:10214000331F441F551F01979C878B876FE170E0F9
:10215000A12CB12CC12CA0E4DA2E80E090E0DC01AF
:102160002E153F054007510740F08A299B29AC29CD
:10217000BD292E193F09400B510BD694C794B79433
:10218000A794220F331F441F551F6150704041F721
:102190006FE7E62EF12C012D112DE822F9220A23FA
:1021A0001B2360E4E616F1040105110561F487FDC7
:1021B0000AC0211531054105510529F0805C9F4F6A
:1021C000AF4FBF4F80788D879E87AF87B88B8E01CA
:1021D000075F1F4F04C0870102C007E611E0C80176
:1021E0000E94D8116896EAE00C948C13A8E1B0E044
:1021F000ECEFF0E10C94741369837A838B839C83F6
:102200002D833E834F8358878E01075F1F4FCE017A
:102210000196B8010E94A61281E1E82EF12CEC0E85
:10222000FD1ECE010596B7010E94A6128985823057
:1022300040F08989823028F0C801B7010E940F134D
:1022400001C08FEF6896E6E00C949013A8E1B0E02F
:10225000ECE2F1E10C94741369837A838B839C83A1
:102260002D833E834F8358878E01075F1F4FCE011A
:102270000196B8010E94A61281E1E82EF12CEC0E25
:10228000FD1ECE010596B7010E94A61289858230F7
:1022900040F08989823028F0C801B7010E940F13ED
:1022A00001C08FEF6896E6E00C949013A8E1B0E0CF
:1022B000ECE5F1E10C94741369837A838B839C833E
:1022C0002D833E834F8358878E01075F1F4FCE01BA
:1022D0000196B8010E94A61281E1E82EF12CEC0EC5
:1022E000FD1ECE010596B7010E94A6128985823097
:1022F00040F08989823028F0C801B7010E940F138D
:1023000001C081E06896E6E00C949013ACE0B0E088
:10231000ECE8F1E10C94781369837A838B839C83D6
:10232000CE010196BE016B5F7F4F0E94A6128D8188
:10233000823081F1823070F1843021F48E818823E3
:1023400069F10AC02F81388537FD24C06E812F3195
:1023500031053CF0662311F120E030E040E050E828
:1023600021C08EE190E0821B930B29853A854B8535
:102370005C8504C056954795379527958A95D2F781
:10238000662381F050954095309521953F4F4F4FF2
:102390005F4F08C020E030E0A90104C02FEF3FEFFD
:1023A0004FEF5FE7B901CA012C96E2E00C94941359
:1023B000EF92FF920F931F93CF93DF93FC01248141
:1023C00035814681578161818081823020F440616E
:1023D000EFEFF0E0A3C0843009F49BC0823009F431
:1023E00092C0211531054105510509F48FC00280C5
:1023F000F381E02D8FEFE238F8070CF05AC0C2E805
:10240000DFEFCE1BDF0BCA31D1056CF579018A01F4
:102410000C2E04C016950795F794E7940A94D2F70A
:1024200081E090E0A0E0B0E00C2E04C0880F991F7E
:10243000AA1FBB1F0A94D2F70197A109B1098223F1
:102440009323A423B52321E030E040E050E000973F
:10245000A105B10519F420E030E0A9012E293F299A
:10246000402B512B03C020E030E0A901DA01C90163
:102470008F779070A070B07080349105A105B10580
:1024800039F427FF09C0205C3F4F4F4F5F4F04C016
:10249000215C3F4F4F4F5F4FE1E0F0E0203080E0A4
:1024A000380780E0480780E4580728F5E0E0F0E0CE
:1024B00022C0E038F1056CF5E158FF4FDA01C9019F
:1024C0008F779070A070B07080349105A105B10530
:1024D00039F427FF09C0205C3F4F4F4F5F4F04C0C6
:1024E000215C3F4F4F4F5F4F57FF05C056954795B3
:1024F00037952795319687E05695479537952795D7
:102500008A95D1F70BC0E0E0F0E005C0E0E0F0E034
:1025100005C0EFEFF0E020E030E0A9018E2F8795B5
:1025200088278795942F9F77679566276795E69507
:10253000E22EA92FA82BFE2FF62B622F732F8A2FA6
:102540009F2FCDB7DEB7E6E00C949013DC01FB01C2
:102550002C9111963C91119712968C911297482FBD
:102560004F7750E0982F991F9927991F13966C91D8
:102570001397862F880F892B90E0661F6627661FAA
:102580006183009739F5211531054105510511F495
:1025900082E029C082E89FEF9383828367E0220F65
:1025A000331F441F551F6A95D1F783E0808309C00C
:1025B000220F331F441F551F8281938101979383FC
:1025C0008283203080E0380780E0480780E45807A5
:1025D00078F320C08F3F910579F42115310541052D
:1025E000510519F484E08083089544FF03C081E01D
:1025F000808310C010820EC08F57904093838283D7
:1026000083E0808387E0220F331F441F551F8A9584
:10261000D1F7506424833583468357830895FC01A2
:10262000DB019081923008F449C08C91823008F42B
:1026300045C0943051F461818430B1F511962C91EC
:10264000119730E0261B310941C0843021F09230CF
:1026500041F48230B1F111968C9111978823A1F148
:102660002DC06181823001F111968C91119768170C
:10267000D9F42281338112968D919C911397821700
:10268000930794F028173907BCF0248135814681DF
:10269000578114968D919D910D90BC91A02D82171C
:1026A0009307A407B50718F4662341F00DC0281757
:1026B00039074A075B0728F4662331F021E030E050
:1026C00005C020E030E002C02FEF3FEFC9010895C0
:1026D0002F923F924F925F926F927F928F929F9232
:1026E000AF92BF92CF92DF92EF92FF920F931F9320
:1026F000CF93DF93CDB7DEB7CA1BDB0B0FB6F894D1
:10270000DEBF0FBECDBF09942A88398848885F8410
:102710006E847D848C849B84AA84B984C884DF8081
:10272000EE80FD800C811B81AA81B981CE0FD11D65
:102730000FB6F894DEBF0FBECDBFED0108950F9325
:102740001F93DF93CF93CDB7DEB72E970FB6F894D4
:10275000DEBF0FBECDBF0D891E8986E08C831A8334
:1027600009838FEF9FE79E838D839E01275E3F4FF6
:10277000CE0101966F89788DA9010E94CF13EF8158
:10278000F885E00FF11F10822E960FB6F894DEBF89
:102790000FBECDBFCF91DF911F910F9108952F9262
:1027A0003F924F925F926F927F928F929F92AF92E1
:1027B000BF92CF92DF92EF92FF920F931F93DF931E
:1027C000CF93CDB7DEB72C970FB6F894DEBF0FBE10
:1027D000CDBF6C011B018A01FC0117821682838127
:1027E00081FFD1C12E010894411C511CF601938137
:1027F000F10193FD859193FF81911F01882309F4D5
:10280000BEC1853239F493FD859193FF81911F01FB
:10281000853229F490E0B6010E94F515E7CFEE2449
:10282000FF2420E02032B0F48B3269F08C3228F49F
:10283000803251F0833271F40BC08D3239F0803325
:1028400049F421602CC02260246029C0286027C080
:10285000206125C027FD2CC0382F30533A3098F422
:1028600026FF08C08E2D880FE82EEE0CEE0CE80E29
:10287000E30E15C08F2D880FF82EFF0CFF0CF80EFD
:10288000F30E20620CC08E3221F426FD78C1206444
:1028900006C08C3611F4206802C0883649F4F10174
:1028A00093FD859193FF81911F01882309F0BACF91
:1028B000982F9554933018F09052933028F40C5F71
:1028C0001F4FFFE3F9830DC0833631F0833771F07A
:1028D000833509F060C022C0F801808189830E5FD2
:1028E0001F4F420171E0A72EB12C16C062E0662E88
:1028F000712C600E711EF8018080918026FF03C04C
:102900006E2D70E002C06FEF7FEFC4012C870E9434
:10291000EA155C0183012C852F7717C052E0652EE4
:10292000712C600E711EF8018080918026FF03C01B
:102930006E2D70E002C06FEF7FEFC4012C870E9404
:10294000DF155C012C852068830123FD20C008C0B1
:1029500080E290E0B6012C870E94F515FA942C8550
:102960008F2D90E0A816B90698F311C0F40127FD49
:10297000859127FF81914F0190E0B6012C870E943D
:10298000F5152C85F110FA940894A108B108A1144A
:10299000B10461F7F1C0843611F0893649F527FF9B
:1029A00008C0F80160817181828193810C5F1F4FA3
:1029B00009C0F80160817181882777FD8095982F83
:1029C0000E5F1F4F4FE6B42EB22297FF09C09095BD
:1029D0008095709561957F4F8F4F9F4FF0E8BF2A8C
:1029E000A2012AE030E00E942116782E741845C01A
:1029F000853731F43FEEB32EB2222AE030E025C015
:102A000099EFB92EB2228F36C1F0803720F4883585
:102A100009F0B5C00DC0803721F0883709F0AFC08C
:102A200002C020E1B22AB4FE0BC084E0B82A08C07C
:102A3000B4FE09C0E6E0BE2A06C028E030E005C0CA
:102A400020E130E002C020E132E0B7FE08C0F8012A
:102A500060817181828193810C5F1F4F07C0F801F3
:102A60006081718180E090E00E5F1F4FA2010E94A3
:102A70002116782E7418FFE7BF22B6FE0BC02EEF8A
:102A8000B2227E1438F4B4FE07C0B2FC05C08FEE4B
:102A9000B82202C0A72C01C0AE2C8B2D90E0B4FE52
:102AA0000DC0FE01E70DF11D2081203319F4E9EE80
:102AB000BE2209C0A394B2FE06C004C086789070FE
:102AC000009709F0A3948B2C9924B3FC14C0B0FE9A
:102AD0000FC0AF1428F4E72CEF0CEA18AF2C08C095
:102AE000E72C06C080E290E0B6010E94F515A394A1
:102AF000AF14C0F304C0AF1410F4FA1801C0FF24DF
:102B000084FE0FC080E390E0B6010E94F51582FEBE
:102B10001FC081FE03C088E590E010C088E790E008
:102B20000DC0C40186789070009791F081FC02C0BE
:102B300080E201C08BE2B7FC8DE290E0B6010E941A
:102B4000F51506C080E390E0B6010E94F515EA9401
:102B50007E14C0F37A94F201E70DF11D808190E0BC
:102B6000B6010E94F5157720A9F706C080E290E033
:102B7000B6010E94F515FA94FF20C1F737CEF60191
:102B80002681378102C02FEF3FEFC9012C960FB687
:102B9000F894DEBF0FBECDBFCF91DF911F910F9193
:102BA000FF90EF90DF90CF90BF90AF909F908F906D
:102BB0007F906F905F904F903F902F900895FC0111
:102BC0000590615070400110D8F7809590958E0F58
:102BD0009F1F0895FC016150704001900110D8F7CB
:102BE000809590958E0F9F1F08950F931F93CF93FD
:102BF000DF938C01EB018B8181FF1BC082FF0DC035
:102C00002E813F818C819D812817390764F4E881EA
:102C1000F9810193F983E88306C0E885F985802F5F
:102C20000995009731F48E819F8101969F838E8351
:102C300002C00FEF1FEFC801DF91CF911F910F91DD
:102C40000895FA01AA27283051F1203181F1E89442
:102C50006F936E7F6E5F7F4F8F4F9F4FAF4FB1E08F
:102C60003ED0B4E03CD0670F781F891F9A1FA11D8A
:102C7000680F791F8A1F911DA11D6A0F711D811D8B
:102C8000911DA11D20D009F468943F912AE0269F50
:102C900011243019305D3193DEF6CF010895462FAF
:102CA0004770405D4193B3E00FD0C9F7F6CF462F90
:102CB0004F70405D4A3318F0495D31FD40524193F9
:102CC00002D0A9F7EACFB4E0A695979587957795B6
:102CD0006795BA95C9F700976105710508959B013D
:102CE000AC010A2E06945795479537952795BA95C6
:102CF000C9F7620F731F841F951FA01D0895F894D4
:022D0000FFCF03
:102D02002020456C656374726963207069616E6F1F
:102D12002020200020202020202020666F722062A8
:102D22006162790020736F6E673A20616972706C1C
:102D3200616E652000C0F9A4B0999282F8809088F3
:102D420083C6A1868E206B657920256320202020F2
:102D5200202020202000206E6F6E65202020202061
:102D620020202020202000000000000000000000A1
:00000001FF
