:100000000C9446000C9465000C9465000C946500FB
:100010000C9465000C9465000C9465000C946500CC
:100020000C9465000C9465000C94840C0C94650091
:100030000C9465000C9465000C94F0040C9430054D
:100040000C9465000C9465000C9465000C9465009C
:100050000C9465000C9465000C9465000C9465008C
:100060000C9465000C9465000C9465000C9465007C
:100070000C9465000C9465000C9465000C9465006C
:100080000C9465000C9465000C94650011241FBE4F
:10009000CFEFD0E1DEBFCDBF11E0A0E0B1E0E4E5FD
:1000A000FBE200E00BBF02C007900D92AA38B10737
:1000B000D9F711E0AAE8B1E001C01D92A239B10759
:1000C000E1F70E94E10A0C94A8150C940000DF935C
:1000D000CF93CDB7DEB7E1970FB6F894DEBF0FBE72
:1000E000CDBF89ABA8E3B0E0E8E3F0E080818160B8
:1000F0008C93EBE3F0E089A98083A8E3B0E0E8E328
:10010000F0E0808184608C9380E090E0A0E8BFE321
:100110008DA79EA7AFA7B8AB6DA57EA58FA598A903
:1001200022E539E44DE950E40E946A0EDC01CB017E
:1001300089A79AA7ABA7BCA769A57AA58BA59CA5FB
:1001400020E030E040E85FE30E94701088231CF458
:1001500081E088A791C069A57AA58BA59CA520E020
:1001600030E04FE753E40E94101018160CF07BC0EB
:100170006DA57EA58FA598A920E030E04AE754E45C
:100180000E94640FDC01CB018CA39DA3AEA3BFA38F
:100190006CA17DA18EA19FA126E636E646E655E438
:1001A0000E946A0EDC01CB0188A399A3AAA3BBA37A
:1001B00068A179A18AA19BA120E030E040E85FE33B
:1001C0000E94701088232CF481E090E09F8F8E8F26
:1001D0003FC068A179A18AA19BA120E03FEF4FE732
:1001E00057E40E94101018164CF56CA17DA18EA149
:1001F0009FA120E030E040E251E40E946A0EDC0161
:10020000CB01BC01CD010E94940CDC01CB019F8F7E
:100210008E8F0FC080E791E09D8F8C8F8C8D9D8D90
:100220000197F1F79D8F8C8F8E8D9F8D01979F8FFA
:100230008E8F8E8D9F8D009769F724C068A179A15C
:100240008AA19BA10E94940CDC01CB019F8F8E8F11
:100250008E8D9F8D9B8F8A8F8A8D9B8D0197F1F755
:100260009B8F8A8F0FC069A57AA58BA59CA50E943C
:10027000940CDC01CB0188A788A5898F898D8A958C
:10028000F1F7898FA8E3B0E0E8E3F0E080818B7FAD
:100290008C9380E090E0A8E4B2E48D8B9E8BAF8BD2
:1002A000B88F6D897E898F89988D22E539E44DE973
:1002B00050E40E946A0EDC01CB01898B9A8BAB8BD8
:1002C000BC8B69897A898B899C8920E030E040E881
:1002D0005FE30E94701088231CF481E0888B91C03A
:1002E00069897A898B899C8920E030E04FE753E463
:1002F0000E94101018160CF07BC06D897E898F89C2
:10030000988D20E030E04AE754E40E94640FDC015D
:10031000CB018C879D87AE87BF876C857D858E8559
:100320009F8526E636E646E655E40E946A0EDC0125
:10033000CB0188879987AA87BB87688579858A8555
:100340009B8520E030E040E85FE30E947010882346
:100350002CF481E090E09F838E833FC0688579858F
:100360008A859B8520E03FEF4FE757E40E941010FD
:1003700018164CF56C857D858E859F8520E030E0D4
:1003800040E251E40E946A0EDC01CB01BC01CD01C8
:100390000E94940CDC01CB019F838E830FC080E709
:1003A00091E09D838C838C819D810197F1F79D83E2
:1003B0008C838E819F8101979F838E838E819F8105
:1003C000009769F724C0688579858A859B850E9496
:1003D000940CDC01CB019F838E838E819F819B8354
:1003E0008A838A819B810197F1F79B838A830FC05F
:1003F00069897A898B899C890E94940CDC01CB01E4
:10040000888B8889898389818A95F1F78983E19628
:100410000FB6F894DEBF0FBECDBFCF91DF91089528
:10042000DF93CF93CDB7DEB7A7970FB6F894DEBFB3
:100430000FBECDBF8FA3A8E3B0E0E8E3F0E080817A
:100440008E7F8C93EBE3F0E08FA18083A8E3B0E094
:10045000E8E3F0E0808184608C9380E090E0A0E8A5
:10046000BFE38BA39CA3ADA3BEA36BA17CA18DA175
:100470009EA122E539E44DE950E40E946A0EDC01B8
:10048000CB018F8F98A3A9A3BAA36F8D78A189A15F
:100490009AA120E030E040E85FE30E9470108823DA
:1004A0001CF481E08E8F91C06F8D78A189A19AA1F3
:1004B00020E030E04FE753E40E94101018160CF0D3
:1004C0007BC06BA17CA18DA19EA120E030E04AE71A
:1004D00054E40E94640FDC01CB018A8F9B8FAC8FA8
:1004E000BD8F6A8D7B8D8C8D9D8D26E636E646E62A
:1004F00055E40E946A0EDC01CB018E8B9F8BA88F86
:10050000B98F6E897F89888D998D20E030E040E831
:100510005FE30E94701088232CF481E090E09D8BB3
:100520008C8B3FC06E897F89888D998D20E03FEF4D
:100530004FE757E40E94101018164CF56A8D7B8D1A
:100540008C8D9D8D20E030E040E251E40E946A0EE7
:10055000DC01CB01BC01CD010E94940CDC01CB017C
:100560009D8B8C8B0FC080E791E09B8B8A8B8A8957
:100570009B890197F1F79B8B8A8B8C899D890197C9
:100580009D8B8C8B8C899D89009769F724C06E891F
:100590007F89888D998D0E94940CDC01CB019D8B05
:1005A0008C8B8C899D89998B888B888999890197F7
:1005B000F1F7998B888B0FC06F8D78A189A19AA1D3
:1005C0000E94940CDC01CB018E8F8E8D8F878F85DE
:1005D0008A95F1F78F87A8E3B0E0E8E3F0E0808147
:1005E0008B7F8C9380E090E0A0E0B0E48B879C87C9
:1005F000AD87BE876B857C858D859E8526E636E634
:1006000046E655E40E946A0EDC01CB018F83988791
:10061000A987BA876F81788589859A8520E030E03F
:1006200040E85FE30E94701088232CF481E090E0A2
:100630009E838D833FC06F81788589859A8520E070
:100640003FEF4FE757E40E94101018164CF56B85EA
:100650007C858D859E8520E030E040E251E40E945B
:100660006A0EDC01CB01BC01CD010E94940CDC01BF
:10067000CB019E838D830FC080E791E09C838B83A9
:100680008B819C810197F1F79C838B838D819E8167
:1006900001979E838D838D819E81009769F714C099
:1006A0006F81788589859A850E94940CDC01CB0145
:1006B0009E838D838D819E819A83898389819A818E
:1006C0000197F1F79A838983A7960FB6F894DEBF56
:1006D0000FBECDBFCF91DF910895DF93CF9300D0B0
:1006E000CDB7DEB789836A838A81882329F489811B
:1006F00080580E94100217C08A81813029F48981B4
:1007000080540E9410020FC08A81823029F48981AE
:100710008C560E94100207C08A81833021F489819F
:100720008C520E9410020F900F90CF91DF9108958C
:10073000DF93CF9300D0CDB7DEB79A8389830BC008
:10074000E981FA81208189819A8101969A8389833E
:10075000822F0E946700E981FA818081882381F7D6
:100760000F900F90CF91DF910895DF93CF93CDB786
:10077000DEB76C970FB6F894DEBF0FBECDBFEAE3CD
:10078000F0E08FEF8083E7E3F0E087E0808380E0B4
:1007900090E0A0EFB1E4898F9A8FAB8FBC8F698D09
:1007A0007A8D8B8D9C8D26E636E646E655E40E94D2
:1007B0006A0EDC01CB018D8B9E8BAF8BB88F6D8960
:1007C0007E898F89988D20E030E040E85FE30E94C9
:1007D000701088232CF481E090E09C8B8B8B3FC0C1
:1007E0006D897E898F89988D20E03FEF4FE757E430
:1007F0000E94101018164CF5698D7A8D8B8D9C8D8A
:1008000020E030E040E251E40E946A0EDC01CB01BE
:10081000BC01CD010E94940CDC01CB019C8B8B8B25
:100820000FC080E791E09A8B898B89899A8901971B
:10083000F1F79A8B898B8B899C8901979C8B8B8B89
:100840008B899C89009769F714C06D897E898F898F
:10085000988D0E94940CDC01CB019C8B8B8B8B8937
:100860009C89988B8F878F8598890197F1F7988B52
:100870008F8788E30E94100288E30E94100288E3B9
:100880000E9410028EE00E94100286E00E94100278
:1008900081E00E94100280E090E0A0E8BFE38B8737
:1008A0009C87AD87BE876B857C858D859E8526E67A
:1008B00036E646E655E40E946A0EDC01CB018F83E2
:1008C0009887A987BA876F81788589859A8520E07E
:1008D00030E040E85FE30E94701088232CF481E050
:1008E00090E09E838D833FC06F81788589859A854E
:1008F00020E03FEF4FE757E40E94101018164CF528
:100900006B857C858D859E8520E030E040E251E45A
:100910000E946A0EDC01CB01BC01CD010E94940C47
:10092000DC01CB019E838D830FC080E791E09C8327
:100930008B838B819C810197F1F79C838B838D81C5
:100940009E8101979E838D838D819E81009769F79B
:1009500014C06F81788589859A850E94940CDC018A
:10096000CB019E838D838D819E819A83898389812A
:100970009A810197F1F79A8389836C960FB6F89460
:10098000DEBF0FBECDBFCF91DF910895DF93CF9330
:10099000CDB7DEB7E5E4F0E01082A5E4B0E0E5E431
:1009A000F0E0808188608C93A5E4B0E0E5E4F0E0BD
:1009B000808180618C93A5E4B0E0E5E4F0E0808183
:1009C00085608C93E3E4F0E08AEF8083A7E5B0E0F4
:1009D000E7E5F0E0808180648C93CF91DF9108950A
:1009E0001F920F920FB60F9200905B000F9211248E
:1009F0008F939F93AF93BF93EF93FF93DF93CF9327
:100A0000CDB7DEB7EDE4F0E087EC8083ECE4F0E016
:100A100080EC8083809191018F5F80939101809120
:100A200091018F3111F410929101A2E3B0E0809115
:100A30009101882F90E0FC01EA5CFE4F80818C934D
:100A4000CF91DF91FF91EF91BF91AF919F918F91E6
:100A50000F9000925B000F900FBE0F901F901895A3
:100A60001F920F920FB60F9200905B000F9211240D
:100A70002F933F938F939F93AF93BF93EF93FF93E6
:100A8000DF93CF9300D0CDB7DEB7E2E6F0E010827F
:100A900080918C01282F30E03A83298389819A81C3
:100AA0008130910529F129813A81223031052CF4D8
:100AB00089819A81009761F04BC029813A81223067
:100AC000310531F189819A818330910591F140C0DE
:100AD000A3E2B0E080918D01882F90E0FC01EB5AF9
:100AE000FE4F80818C93E2E6F0E081E0808330C0AD
:100AF000A3E2B0E080918E01882F90E0FC01EB5AD8
:100B0000FE4F80818C93E2E6F0E082E0808320C09B
:100B1000A3E2B0E080918F01882F90E0FC01EB5AB6
:100B2000FE4F80818F778C93E2E6F0E084E0808353
:100B30000FC0A3E2B0E080919001882F90E0FC010B
:100B4000EB5AFE4F80818C93E2E6F0E088E08083F0
:100B500080918C018F5F80938C0180918C01843017
:100B600010F010928C010F900F90CF91DF91FF91B8
:100B7000EF91BF91AF919F918F913F912F910F90E6
:100B800000925B000F900FBE0F901F9018950F936F
:100B90001F93DF93CF93CDB7DEB7C156D0400FB6CA
:100BA000F894DEBF0FBECDBFFE01EF59FF4F8FEFB0
:100BB0008083E4E3F0E01082E5E3F0E08FEF8083F0
:100BC000E7E3F0E08FEF8083E8E3F0E01082E4E316
:100BD000F0E088E08083A5E3B0E0E5E3F0E0808129
:100BE000877F8C93FE01E35AFF4F80E090E0A0EAFC
:100BF000B0E480839183A283B3838E01075A1F4F91
:100C0000FE01E35AFF4F608171818281938122E569
:100C100039E44DE950E40E946A0EDC01CB01F80191
:100C200080839183A283B383FE01E75AFF4F6081E3
:100C300071818281938120E030E040E85FE30E948F
:100C40007010882334F4FE01E85AFF4F81E080835E
:100C5000E0C0FE01E75AFF4F60817181828193817C
:100C600020E030E04FE753E40E94101018160CF01B
:100C7000C0C0FE01E35AFF4F608171818281938180
:100C800020E030E04AE754E40E94640FDC01CB012D
:100C9000FE01EC5AFF4F80839183A283B3838E01C0
:100CA000005B1F4FFE01EC5AFF4F60817181828112
:100CB000938126E636E646E655E40E946A0EDC019C
:100CC000CB01F80180839183A283B383FE01E05BB3
:100CD000FF4F608171818281938120E030E040E8A4
:100CE0005FE30E947010882344F4FE01E25BFF4F33
:100CF00081E090E09183808364C0FE01E05BFF4F60
:100D0000608171818281938120E03FEF4FE757E45A
:100D10000E94101018160CF043C0FE01EC5AFF4F51
:100D2000608171818281938120E030E040E251E472
:100D30000E946A0EDC01CB018E01025B1F4FBC01D9
:100D4000CD010E94940CDC01CB01F80191838083DA
:100D50001FC0FE01E45BFF4F80E791E09183808339
:100D6000FE01E45BFF4F808191810197F1F7FE0165
:100D7000E45BFF4F91838083DE01A25BBF4FFE01E6
:100D8000E25BFF4F80819181019711969C938E9336
:100D9000FE01E25BFF4F808191810097D1F64BC04D
:100DA0008E01025B1F4FFE01E05BFF4F608171818E
:100DB000828193810E94940CDC01CB01F801918324
:100DC0008083DE01A65BBF4FFE01E25BFF4F8081A7
:100DD000918111969C938E93FE01E65BFF4F80817B
:100DE00091810197F1F7FE01E65BFF4F91838083CC
:100DF00022C08E01085A1F4FFE01E75AFF4F608143
:100E00007181828193810E94940CDC01CB01F801F5
:100E10008083DE01A75BBF4FFE01E85AFF4F808150
:100E20008C93FE01E75BFF4F80818A95F1F7FE010D
:100E3000E75BFF4F8083E3E3F0E08081882F90E061
:100E400081709070009789F4FE01EF59FF4F83E3A2
:100E50008083A2E3B0E0E2E3F0E0908184E08927C0
:100E60008C93E3E4F0E086E18083E3E3F0E08081CB
:100E7000882F90E082709070009789F4FE01EF59FE
:100E8000FF4F82E38083A2E3B0E0E2E3F0E09081F1
:100E900082E089278C93E3E4F0E088E18083E3E358
:100EA000F0E08081882F90E084709070009789F442
:100EB000FE01EF59FF4F81E38083A2E3B0E0E2E35C
:100EC000F0E0908181E089278C93E3E4F0E08BE10E
:100ED0008083E4E3F0E01082E5E3F0E08FEF8083CD
:100EE000E4E3F0E080E18083A5E3B0E0E5E3F0E057
:100EF00080818F7E8C93FE01EB5BFF4F80E090E062
:100F0000A0EAB0E480839183A283B3838E010F5B58
:100F10001F4FFE01EB5BFF4F6081718182819381E6
:100F200022E539E44DE950E40E946A0EDC01CB0170
:100F3000F80180839183A283B383FE01EF5BFF4FAF
:100F4000608171818281938120E030E040E85FE33D
:100F50000E947010882334F481E0FE01E05CFF4FB2
:100F600080839DC0FE01EF5BFF4F608171818281B4
:100F7000938120E030E04FE753E40E9410101816F0
:100F80000CF07EC0FE01EB5BFF4F608171818281BE
:100F9000938120E030E04AE754E40E94640FDC01D2
:100FA000CB018CAF9DAFAEAFBFAF6CAD7DAD8EADA5
:100FB0009FAD26E636E646E655E40E946A0EDC0161
:100FC000CB0188AF99AFAAAFBBAF68AD79AD8AADA1
:100FD0009BAD20E030E040E85FE30E947010882382
:100FE0002CF481E090E09FAB8EAB3FC068AD79AD53
:100FF0008AAD9BAD20E03FEF4FE757E40E94101011
:1010000018164CF56CAD7DAD8EAD9FAD20E030E097
:1010100040E251E40E946A0EDC01CB01BC01CD012B
:101020000E94940CDC01CB019FAB8EAB0FC080E71C
:1010300091E09DAB8CAB8CA99DA90197F1F79DAB7D
:101040008CAB8EA99FA901979FAB8EAB8EA99FA950
:10105000009769F72DC068AD79AD8AAD9BAD0E9450
:10106000940CDC01CB019FAB8EAB8EA99FA99BABEF
:101070008AAB8AA99BA90197F1F79BAB8AAB18C0F1
:10108000FE01EF5BFF4F60817181828193810E943D
:10109000940CDC01CB01FE01E05CFF4F8083FE017C
:1010A000E05CFF4F808189AB89A98A95F1F789AB14
:1010B000E3E3F0E08081882F90E0817090700097EA
:1010C00089F4FE01EF59FF4F86E38083A2E3B0E08D
:1010D000E2E3F0E0908180E289278C93E3E4F0E0A2
:1010E00080E18083E3E3F0E08081882F90E08270EC
:1010F0009070009789F4FE01EF59FF4F85E38083DC
:10110000A2E3B0E0E2E3F0E0908180E189278C93F4
:10111000E3E4F0E082E18083E3E3F0E08081882F84
:1011200090E084709070009789F4FE01EF59FF4FB2
:1011300084E38083A2E3B0E0E2E3F0E0908188E022
:1011400089278C93E3E4F0E084E18083E4E3F0E03A
:101150001082E5E3F0E08FEF8083E4E3F0E080E2EB
:101160008083A5E3B0E0E5E3F0E080818F7D8C93A0
:1011700080E090E0A0EAB0E48DA79EA7AFA7B8AB4F
:101180006DA57EA58FA598A922E539E44DE950E427
:101190000E946A0EDC01CB0189A79AA7ABA7BCA766
:1011A00069A57AA58BA59CA520E030E040E85FE327
:1011B0000E94701088231CF481E088A791C069A563
:1011C0007AA58BA59CA520E030E04FE753E40E9470
:1011D000101018160CF07BC06DA57EA58FA598A9E0
:1011E00020E030E04AE754E40E94640FDC01CB01C8
:1011F0008CA39DA3AEA3BFA36CA17DA18EA19FA133
:1012000026E636E646E655E40E946A0EDC01CB018E
:1012100088A399A3AAA3BBA368A179A18AA19BA132
:1012200020E030E040E85FE30E94701088232CF457
:1012300081E090E09F8F8E8F3FC068A179A18AA145
:101240009BA120E03FEF4FE757E40E9410101816D3
:101250004CF56CA17DA18EA19FA120E030E040E281
:1012600051E40E946A0EDC01CB01BC01CD010E9459
:10127000940CDC01CB019F8F8E8F0FC080E791E033
:101280009D8F8C8F8C8D9D8D0197F1F79D8F8C8F0D
:101290008E8D9F8D01979F8F8E8F8E8D9F8D009746
:1012A00069F724C068A179A18AA19BA10E94940C2E
:1012B000DC01CB019F8F8E8F8E8D9F8D9B8F8A8FB0
:1012C0008A8D9B8D0197F1F79B8F8A8F0FC069A53F
:1012D0007AA58BA59CA50E94940CDC01CB0188A764
:1012E00088A5898F898D8A95F1F7898FE3E3F0E0EE
:1012F0008081882F90E081709070009759F4FE01F2
:10130000EF59FF4F89E38083A2E3B0E0E2E3F0E02E
:1013100080818C93E3E3F0E08081882F90E08270FD
:101320009070009789F4FE01EF59FF4F88E38083A6
:10133000A2E3B0E0E2E3F0E0908180E889278C93BB
:10134000E3E4F0E08DE08083E3E3F0E08081882F48
:1013500090E084709070009789F4FE01EF59FF4F80
:1013600087E38083A2E3B0E0E2E3F0E0908180E4F1
:1013700089278C93E3E4F0E08EE08083E4E3F0E0FF
:101380001082E5E3F0E08FEF8083E4E3F0E080E4B7
:101390008083A5E3B0E0E5E3F0E080818F7B8C9370
:1013A00080E090E0A0EAB0E48D8B9E8BAF8BB88F8D
:1013B0006D897E898F89988D22E539E44DE950E465
:1013C0000E946A0EDC01CB01898B9A8BAB8BBC8BA4
:1013D00069897A898B899C8920E030E040E85FE365
:1013E0000E94701088231CF481E0888B91C0698969
:1013F0007A898B899C8920E030E04FE753E40E9492
:10140000101018160CF07BC06D897E898F89988D1D
:1014100020E030E04AE754E40E94640FDC01CB0195
:101420008C879D87AE87BF876C857D858E859F85E0
:1014300026E636E646E655E40E946A0EDC01CB015C
:1014400088879987AA87BB87688579858A859B85E0
:1014500020E030E040E85FE30E94701088232CF425
:1014600081E090E09F838E833FC0688579858A857F
:101470009B8520E03FEF4FE757E40E9410101816BD
:101480004CF56C857D858E859F8520E030E040E2BF
:1014900051E40E946A0EDC01CB01BC01CD010E9427
:1014A000940CDC01CB019F838E830FC080E791E019
:1014B0009D838C838C819D810197F1F79D838C8323
:1014C0008E819F8101979F838E838E819F8100975C
:1014D00069F724C0688579858A859B850E94940C6C
:1014E000DC01CB019F838E838E819F819B838A83C6
:1014F0008A819B810197F1F79B838A830FC0698959
:101500007A898B899C890E94940CDC01CB01888BA1
:101510008889898389818A95F1F78983E3E3F0E0FB
:101520008081882F90E081709070009759F4FE01BF
:10153000EF59FF4F82E48083A2E3B0E0E2E3F0E002
:1015400080818C93E3E3F0E08081882F90E08270CB
:101550009070009759F4FE01EF59FF4F80E38083AC
:10156000A2E3B0E0E2E3F0E080818C93E3E3F0E01B
:101570008081882F90E084709070009759F4FE016C
:10158000EF59FF4F81E48083A2E3B0E0E2E3F0E0B3
:1015900080818C93E4E3F0E01082E5E3F0E08FEFEC
:1015A0008083FE01EF59FF4F8081CF59DF4F0FB687
:1015B000F894DEBF0FBECDBFCF91DF911F910F9189
:1015C0000895DF93CF93CDB7DEB7EE970FB6F894BB
:1015D000DEBF0FBECDBFE3E4F0E08FEF8083E2E239
:1015E000F0E08FEF8083E1E6F0E08FE08083E3E5D9
:1015F000F0E08CED8083E1E5F0E083E28083E1E3DD
:10160000F0E08FEF808310929101EDE4F0E087EC41
:101610008083ECE4F0E080EC8083E7E5F0E086E0B6
:101620008083AFE5B0E0EFE5F0E0808180688C93E7
:10163000EFE4F0E01082EEE4F0E085E080830E94C9
:10164000C7058F8F0E94B50380E060E00E946D03A4
:1016500080E091E00E94980380E061E00E946D03C9
:1016600081E191E00E94980380E090E0AAEFB4E469
:10167000898F9A8FAB8FBC8F698D7A8D8B8D9C8D66
:1016800026E636E646E655E40E946A0EDC01CB010A
:101690008D8B9E8BAF8BB88F6D897E898F89988D4E
:1016A00020E030E040E85FE30E94701088232CF4D3
:1016B00081E090E09C8B8B8B3FC06D897E898F8908
:1016C000988D20E03FEF4FE757E40E941010181666
:1016D0004CF5698D7A8D8B8D9C8D20E030E040E259
:1016E00051E40E946A0EDC01CB01BC01CD010E94D5
:1016F000940CDC01CB019C8B8B8B0FC080E791E0BD
:101700009A8B898B89899A890197F1F79A8B898BB2
:101710008B899C8901979C8B8B8B8B899C890097EB
:1017200069F714C06D897E898F89988D0E94940C09
:10173000DC01CB019C8B8B8B8B899C89988B8F8751
:101740008F8598890197F1F7988B8F8780E060E00B
:101750000E946D0383E291E00E9498030E94C604F8
:1017600078940E94C70588A39F8D88A1981749F196
:1017700088A1803320F188A18A3308F582E090E0C7
:101780009E8F8D8F14C08D8D9E8D9C012F5F3F4F3E
:101790008D8D9E8DFC01E357FE4F8081F901E3574B
:1017A000FE4F80838D8D9E8D01979E8F8D8F8D8DA9
:1017B0009E8D992344F788A18F7080938D0188A115
:1017C0008F8F80E061E00E946D0388A1803328F153
:1017D00088A1873410F588A1282F30E000D000D0F0
:1017E00000D0EDB7FEB73196CE018196918380830C
:1017F0008FE591E093838283358324830E94D11205
:101800008DB79EB706960FB6F8949EBF0FBE8DBFDC
:10181000CE0181960E94980304C080E791E00E9467
:10182000980380E090E0A8ECB2E48B879C87AD87BA
:10183000BE876B857C858D859E8526E636E646E6E9
:1018400055E40E946A0EDC01CB018F839887A9873B
:10185000BA876F81788589859A8520E030E040E8F5
:101860005FE30E94701088232CF481E090E09E8357
:101870008D833FC06F81788589859A8520E03FEF11
:101880004FE757E40E94101018164CF56B857C85C5
:101890008D859E8520E030E040E251E40E946A0E92
:1018A000DC01CB01BC01CD010E94940CDC01CB0119
:1018B0009E838D830FC080E791E09C838B838B8117
:1018C0009C810197F1F79C838B838D819E81019789
:1018D0009E838D838D819E81009769F742CF6F81B2
:1018E000788589859A850E94940CDC01CB019E83C2
:1018F0008D838D819E819A83898389819A810197C5
:10190000F1F79A8389832DCF1F920F920FB60F9212
:101910001124DF93CF93CDB7DEB7CF91DF910F9036
:101920000FBE0F901F901895EF92FF920F931F9389
:101930007B018C0120E030E040E05FE40E94401039
:1019400088238CF0C801B70120E030E040E05FE47C
:101950000E940C0E0E94A0109B01AC012050304050
:101960004040504806C0C801B7010E94A0109B012A
:10197000AC01B901CA011F910F91FF90EF9008953A
:10198000A0E0B0E0E6ECFCE00C949A12DC012B0144
:10199000FA019C91923008F439C1EB0188818230C0
:1019A00008F433C1943069F4843009F02FC11196E2
:1019B0009C9111978981981709F428C1A1E8B1E099
:1019C00025C1843009F421C18230A9F4923009F094
:1019D0001DC19A01AD0188E0EA010990AE01E9015B
:1019E00009929E018150C1F7E201898111969C9173
:1019F0008923818308C1923009F407C112962D9082
:101A00003C901397EB018A819B811496AD90BD9019
:101A1000CD90DC901797EC80FD800E811F819101A5
:101A2000281B390BB90137FF04C066277727621BD3
:101A3000730B603271050CF061C0121613066CF561
:101A400037014801062E04C09694879477946794D2
:101A50000A94D2F721E030E040E050E004C0220FC9
:101A6000331F441F551F6A95D2F721503040404024
:101A700050402E213F21402351232115310541059E
:101A8000510521F021E030E040E050E079018A0189
:101A9000E628F728082919293CC0232BD1F1260E66
:101AA000371E35014601062E04C09694879477941C
:101AB00067940A94D2F721E030E040E050E004C09F
:101AC000220F331F441F551F6A95D2F72150304013
:101AD000404050402A213B214C215D2121153105F8
:101AE0004105510521F021E030E040E050E059018E
:101AF0006A01A628B728C828D9280BC082159305E3
:101B00002CF01C01AA24BB24650103C0EE24FF2491
:101B1000870111969C91D20111968C91981709F426
:101B200045C0992339F0A80197012A193B094C09AE
:101B30005D0906C0A60195012E193F09400B510B06
:101B400057FD08C011823382228224833583468365
:101B500057831DC081E081833382228288279927A1
:101B6000DC01821B930BA40BB50B84839583A683A6
:101B7000B7830DC0220F331F441F551F24833583A5
:101B80004683578382819381019793838283248143
:101B9000358146815781DA01C9010197A109B1094F
:101BA0008F5F9F4FAF4FBF4328F30BC091833382AA
:101BB0002282EA0CFB1C0C1D1D1DE482F5820683AB
:101BC000178383E08083248135814681578157FFC5
:101BD0001AC0C901AA2797FDA095BA2F81709070ED
:101BE000A070B0705695479537952795822B932B0B
:101BF000A42BB52B84839583A683B783828193819D
:101C0000019693838283DF0101C0D201CD01CDB75C
:101C1000DEB7E2E10C94B612A0E2B0E0E2E1FEE051
:101C20000C94A61269837A838B839C832D833E83D5
:101C30004F835887E9E0EE2EF12CEC0EFD1ECE010D
:101C40000196B7010E94C9118E010F5E1F4FCE0190
:101C50000596B8010E94C9118A8991E089278A8B6B
:101C6000C701B801AE01475E5F4F0E94C00C0E94E1
:101C7000F410A096E6E00C94C212A0E2B0E0E3E417
:101C8000FEE00C94A61269837A838B839C832D8358
:101C90003E834F835887F9E0EF2EF12CEC0EFD1EAA
:101CA000CE010196B7010E94C9118E010F5E1F4F30
:101CB000CE010596B8010E94C911C701B801AE0155
:101CC000475E5F4F0E94C00C0E94F410A096E6E0B1
:101CD0000C94C212A0E2B0E0E0E7FEE00C949A128D
:101CE00069837A838B839C832D833E834F835887BC
:101CF000CE010196BE01675F7F4F0E94C911CE01E0
:101D00000596BE016F5E7F4F0E94C9119985923082
:101D100088F089898230C8F0943019F4823051F407
:101D200004C0843029F4923081F481E891E0C6C087
:101D3000923049F420E09A858A89981321E02A8715
:101D4000CE010996BBC0823049F420E09A858A8989
:101D5000981321E02A8BCE014196B0C02D843E8499
:101D60004F8458886D887E888F88988CEE24FF2455
:101D70008701AA24BB24650140E050E060E070E0E8
:101D8000E0E0F0E0C10181709070892BE9F0E60C91
:101D9000F71C081D191D9A01AB012A0D3B1D4C1D96
:101DA0005D1D80E090E0A0E0B0E0E614F7040805D7
:101DB000190520F481E090E0A0E0B0E0BA01A901AB
:101DC000480F591F6A1F7B1FAA0CBB1CCC1CDD1CB3
:101DD00097FE08C081E090E0A0E0B0E0A82AB92A10
:101DE000CA2ADB2A3196E032F10549F0660C771CED
:101DF000881C991C5694479437942794C3CFFA852E
:101E0000EA892B893C898B859C85280F391F2E5F99
:101E10003F4F17C0CA0181709070892B61F01695F1
:101E20000795F794E79480E090E0A0E0B0E8E82A16
:101E3000F92A0A2B1B2B76956795579547952F5FA7
:101E40003F4F77FDE7CF0CC0440F551F661F771F2C
:101E500017FD4160EE0CFF1C001F111F2150304088
:101E6000403090E0590790E0690790E4790760F30B
:101E70002B8F3C8FDB01CA018F779070A070B07000
:101E800080349105A105B10561F447FD0AC0E11454
:101E9000F1040105110529F0405C5F4F6F4F7F4F42
:101EA00040781A8EFE1711F081E08A8F4D8F5E8F79
:101EB0006F8F78A383E0898FCE0149960E94F4103A
:101EC000A096E2E10C94B612A8E1B0E0EAE6FFE0E9
:101ED0000C94A21269837A838B839C832D833E8327
:101EE0004F835887B9E0EB2EF12CEC0EFD1ECE018E
:101EF0000196B7010E94C9118E010F5E1F4FCE01DE
:101F00000596B8010E94C9112985223008F47EC0C7
:101F10003989323010F4B8017CC08A859A898927C2
:101F20008A87243011F0223031F4231709F06EC073
:101F300061E871E06EC0343039F41D861E861F865C
:101F4000188A1C861B8604C0323021F484E08987FD
:101F5000B7015FC02B853C858B899C89281B390B79
:101F60003C872B87ED84FE840F851889AD88BE8859
:101F7000CF88D88CEA14FB040C051D0540F4EE0C48
:101F8000FF1C001F111F215030403C872B8720E091
:101F900030E040E050E080E090E0A0E0B0E460E0BD
:101FA00070E0EA14FB040C051D0540F0282B392BCA
:101FB0004A2B5B2BEA18FB080C091D09B695A7955F
:101FC00097958795EE0CFF1C001F111F6F5F7F4FC9
:101FD0006F31710531F7DA01C9018F779070A07008
:101FE000B07080349105A105B10561F427FD0AC0E8
:101FF000E114F1040105110529F0205C3F4F4F4F1A
:102000005F4F20782D873E874F87588BBE01675FD3
:102010007F4FCB010E94F4106896EAE00C94BE1248
:10202000A8E1B0E0E6E1F0E10C94A61269837A83BE
:102030008B839C832D833E834F83588789E0E82ED2
:10204000F12CEC0EFD1ECE010196B7010E94C911C4
:102050008E010F5E1F4FCE010596B8010E94C91177
:102060008985823040F08989823028F0C701B80123
:102070000E94411201C08FEF6896E6E00C94C212F4
:10208000A8E1B0E0E6E4F0E10C94A61269837A835B
:102090008B839C832D833E834F83588789E0E82E72
:1020A000F12CEC0EFD1ECE010196B7010E94C91164
:1020B0008E010F5E1F4FCE010596B8010E94C91117
:1020C0008985823040F08989823028F0C701B801C3
:1020D0000E94411201C08FEF6896E6E00C94C21294
:1020E000A8E1B0E0E6E7F0E10C94A61269837A83F8
:1020F0008B839C832D833E834F83588789E0E82E12
:10210000F12CEC0EFD1ECE010196B7010E94C91103
:102110008E010F5E1F4FCE010596B8010E94C911B6
:102120008985823040F08989823028F0C701B80162
:102130000E94411201C081E06896E6E00C94C21250
:10214000ACE0B0E0E6EAF0E10C94AA1269837A838D
:102150008B839C83CE010196BE016B5F7F4F0E94F3
:10216000C9118D81823061F1823050F1843021F4C7
:102170008E81882351F12EC02F81388537FD20C0F4
:102180006E812F3131051CF06623F9F023C08EE1FA
:1021900090E0821B930B29853A854B855C8504C0B2
:1021A00056954795379527958A95D2F76623B1F0CE
:1021B00050954095309521953F4F4F4F5F4F0EC042
:1021C00020E030E040E050E009C02FEF3FEF4FEF5C
:1021D0005FE704C020E030E040E050E8B901CA0108
:1021E0002C96E2E00C94C612DF92EF92FF920F93CE
:1021F0001F93FC01E480F58006811781D1808081E6
:10220000823048F480E090E0A0E1B0E0E82AF92ACA
:102210000A2B1B2BA5C0843009F49FC0823021F407
:10222000EE24FF24870105C0E114F1040105110526
:1022300019F4E0E0F0E096C0628173819FEF6238AC
:1022400079070CF05BC022E83FEF261B370B2A31E1
:1022500031052CF020E030E040E050E02AC0B80129
:10226000A701022E04C076956795579547950A9465
:10227000D2F781E090E0A0E0B0E004C0880F991FA1
:10228000AA1FBB1F2A95D2F70197A109B1098E2178
:102290009F21A023B1230097A105B10521F081E082
:1022A00090E0A0E0B0E09A01AB01282B392B4A2B3B
:1022B0005B2BDA01C9018F779070A070B070803409
:1022C0009105A105B10539F427FF09C0205C3F4FF6
:1022D0004F4F5F4F04C0215C3F4F4F4F5F4FE0E0D7
:1022E000F0E02030A0E03A07A0E04A07A0E45A0757
:1022F00010F0E1E0F0E079018A0127C06038710553
:1023000064F5FB01E158FF4FD801C7018F7790704A
:10231000A070B07080349105A105B10539F4E7FED5
:102320000DC080E490E0A0E0B0E004C08FE390E056
:10233000A0E0B0E0E80EF91E0A1F1B1F17FF05C042
:1023400016950795F794E794319687E016950795CB
:10235000F794E7948A95D1F705C0EE24FF2487010E
:10236000EFEFF0E06E2F679566276795902F9F77C8
:10237000D794DD24D7948E2F8695492F462B582F3E
:102380005D29B701CA011F910F91FF90EF90DF9077
:102390000895FC01DB01408151812281622F6F771A
:1023A00070E0221F2227221F9381892F880F822B02
:1023B000282F30E0991F9927991F11969C93119708
:1023C00021153105A9F5411551056105710511F476
:1023D00082E037C082E89FEF13969C938E9312970A
:1023E0009A01AB0167E0220F331F441F551F6A9506
:1023F000D1F783E08C930DC0220F331F441F551F6C
:1024000012968D919C911397019713969C938E939E
:102410001297203080E0380780E0480780E45807B2
:1024200058F314962D933D934D935C93179708950D
:102430002F3F310579F4411551056105710519F4F6
:1024400084E08C93089564FF03C081E08C9312C0F4
:102450001C9210C02F57304013963C932E93129726
:1024600083E08C9387E0440F551F661F771F8A9582
:10247000D1F7706414964D935D936D937C93179789
:1024800008951F93DC01FB019C91923008F447C032
:102490008081823008F443C0943051F411961C912D
:1024A000843099F58181682F70E0611B71093FC00C
:1024B000843021F0923031F48230B9F18181882367
:1024C00089F12DC011961C9111978230F1F0818114
:1024D0001817D9F412962D913C911397828193810C
:1024E0008217930794F028173907BCF014968D9142
:1024F0009D910D90BC91A02D2481358146815781FD
:10250000281739074A075B0718F4112341F00AC05E
:1025100082179307A407B50740F4112319F061E06F
:1025200070E005C06FEF7FEF02C060E070E0CB01AC
:102530001F9108952F923F924F925F926F927F92D8
:102540008F929F92AF92BF92CF92DF92EF92FF92C3
:102550000F931F93CF93DF93CDB7DEB7CA1BDB0B6F
:102560000FB6F894DEBF0FBECDBF09942A88398814
:1025700048885F846E847D848C849B84AA84B9841B
:10258000C884DF80EE80FD800C811B81AA81B98127
:10259000CE0FD11D0FB6F894DEBF0FBECDBFED013B
:1025A00008950F931F93DF93CF93CDB7DEB72E9788
:1025B0000FB6F894DEBF0FBECDBF0D891E8986E031
:1025C0008C831A8309838FEF9FE79E838D839E01FF
:1025D000275E3F4FCE0101966F89788DA9010E9439
:1025E00002132F813885020F131FF80110822E96D7
:1025F0000FB6F894DEBF0FBECDBFCF91DF911F9114
:102600000F9108952F923F924F925F926F927F9217
:102610008F929F92AF92BF92CF92DF92EF92FF92F2
:102620000F931F93DF93CF93CDB7DEB72B970FB6E2
:10263000F894DEBF0FBECDBF3C012B015A01FC0157
:1026400017821682838181FD03C06FEF7FEFC6C1C1
:102650009AE0892E1E010894211C311CF30123816C
:10266000F20123FD859123FF81912F01882309F435
:10267000B2C1853239F423FD859123FF81912F0169
:10268000853229F490E0B3010E941E15E7CF982F00
:10269000FF24EE249924FFE1FF15D0F09B3269F06E
:1026A0009C3228F4903259F0933291F40EC09D324E
:1026B00049F0903369F441E024C052E0F52A84E007
:1026C000F82A28C098E0F92A25C0E0E1FE2A22C0B5
:1026D000F7FC29C0892F80538A3070F4F6FE05C0BC
:1026E000989C902C1124980E15C0E89CE02C112485
:1026F000E80EF0E2FF2A0EC09E3229F4F6FC6BC110
:1027000040E4F42A07C09C3619F450E8F52A02C0C8
:10271000983649F4F20123FD959123FF91912F0101
:10272000992309F0B8CF892F8554833018F080524F
:10273000833038F444E050E0A40EB51E5FE35983C3
:102740000FC0933631F0933779F0933509F056C0C6
:1027500020C0F5018081898342E050E0A40EB51EBF
:10276000610101E010E012C0F501C080D180F6FCEB
:1027700003C06FEF7FEF02C0692D70E042E050E0D0
:10278000A40EB51EC6010E9413158C015FE7F52249
:1027900014C0F501C080D180F6FC03C06FEF7FEF5D
:1027A00002C0692D70E042E050E0A40EB51EC601E3
:1027B0000E9408158C0150E8F52AF3FE07C01AC0E4
:1027C00080E290E0B3010E941E15EA948E2D90E005
:1027D00008171907A8F30EC0F601F7FC8591F7FE5C
:1027E00081916F0190E0B3010E941E15E110EA94FF
:1027F000015010400115110579F7EAC0943611F027
:10280000993669F5F7FE08C0F501208131814281D2
:10281000538184E090E00AC0F501808191819C01A0
:10282000442737FD4095542F82E090E0A80EB91E52
:102830009FE6F92257FF09C05095409530952195A4
:102840003F4F4F4F5F4FE0E8FE2ACA01B901A10197
:102850002AE030E00E944A15D82ED21840C09537A1
:1028600029F41F2D1F7E2AE030E01DC01F2D197F87
:102870009F3661F0903720F4983509F0ACC00FC056
:10288000903739F0983709F0A6C004C028E030E04E
:102890000AC0106114FD146020E130E004C014FD92
:1028A000166020E132E017FF08C0F50160817181F8
:1028B0008281938144E050E008C0F50180819181DC
:1028C000BC0180E090E042E050E0A40EB51EA10102
:1028D0000E944A15D82ED2188FE7F82EF122F6FE64
:1028E0000BC05EEFF522D91438F4F4FE07C0F2FCF9
:1028F00005C08FEEF82202C01D2D01C0192DF4FE77
:102900000DC0FE01ED0DF11D8081803319F499EEAB
:10291000F92208C01F5FF2FE05C003C08F2D867824
:1029200009F01F5F0F2DF3FC14C0F0FE0FC01E1541
:1029300010F09D2C0BC09D2C9E0C911A1E2D06C0D4
:1029400080E290E0B3010E941E151F5F1E15C0F3C8
:1029500004C01E1510F4E11A01C0EE2404FF0FC0DC
:1029600080E390E0B3010E941E1502FF1DC001FD2F
:1029700003C088E790E00EC088E590E00BC0802F90
:10298000867891F001FF02C08BE201C080E2F7FC83
:102990008DE290E0B3010E941E1506C080E390E036
:1029A000B3010E941E159A94D914C0F3DA94F10170
:1029B000ED0DF11D808190E0B3010E941E15DD2018
:1029C000A9F706C080E290E0B3010E941E15EA94C8
:1029D000EE20C1F743CEF30166817781CB012B96C0
:1029E0000FB6F894DEBF0FBECDBFCF91DF911F9120
:1029F0000F91FF90EF90DF90CF90BF90AF909F909E
:102A00008F907F906F905F904F903F902F900895A0
:102A1000FC010590615070400110D8F780959095A9
:102A20008E0F9F1F0895FC016150704001900110AE
:102A3000D8F7809590958E0F9F1F08950F931F9341
:102A4000CF93DF938C01EB018B8181FF1BC082FF51
:102A50000DC02E813F818C819D812817390764F438
:102A6000E881F9810193F983E88306C0E885F98557
:102A7000802F0995892B31F48E819F8101969F8348
:102A80008E8302C00FEF1FEFC801DF91CF911F911E
:102A90000F910895FA01AA27283051F1203181F1D0
:102AA000E8946F936E7F6E5F7F4F8F4F9F4FAF4F56
:102AB000B1E03ED0B4E03CD0670F781F891F9A1F69
:102AC000A11D680F791F8A1F911DA11D6A0F711D1D
:102AD000811D911DA11D20D009F468943F912AE029
:102AE000269F11243019305D3193DEF6CF01089511
:102AF000462F4770405D4193B3E00FD0C9F7F6CF42
:102B0000462F4F70405D4A3318F0495D31FD405209
:102B1000419302D0A9F7EACFB4E0A695979587959F
:102B200077956795BA95C9F700976105710508957E
:102B30009B01AC010A2E069457954795379527952A
:102B4000BA95C9F7620F731F841F951FA01D0895C2
:042B5000F894FFCF27
:102B540020202048414E53414E47574F4E202020BD
:102B640000202020202020203230313637363030EB
:102B7400343200202073796C6C61626C65206E6164
:102B84006D6573202000FFFFFFFFFFFFFBFDFEFDCF
:102B9400FBFBFBFDFDFDFBEFEFFBFDFEFDFBFBFB8C
:102BA400FDFDFBFDFEC0F9A4B0999282F88090204F
:102BB4006B65792025632020202020202020200000
:102BC400206E6F6E652020202020202020202020D1
:0A2BD40000000000000000000000F7
:00000001FF
