:100000000C9446000C948B000C94C4000C94650076
:100010000C9465000C9465000C9465000C946500CC
:100020000C9465000C9465000C9465000C946500BC
:100030000C9465000C9465000C9465000C946500AC
:100040000C9465000C9465000C9465000C9465009C
:100050000C9465000C9465000C9465000C9465008C
:100060000C9465000C9465000C9465000C9465007C
:100070000C9465000C9465000C9465000C9465006C
:100080000C9465000C9465000C94650011241FBE4F
:10009000CFEFD0E1DEBFCDBF11E0A0E0B1E0E0E006
:1000A000F3E000E00BBF02C007900D92AA30B10749
:1000B000D9F711E0AAE0B1E001C01D92AC30B10760
:1000C000E1F70E940C010C947E010C940000DF9378
:1000D000CF9300D000D0CDB7DEB769837A838B830E
:1000E0009C8389819A81AB81BC810197A109B10967
:1000F00089839A83AB83BC8389819A81AB81BC81DC
:100100000097A105B10569F70F900F900F900F9020
:10011000CF91DF9108951F920F920FB60F9200902A
:100120005B000F9211242F933F934F935F936F9334
:100130007F938F939F93AF93BF93EF93FF93DF933F
:10014000CF93CDB7DEB78FEF80930B0110920A01EA
:1001500068EE73E080E090E00E946700CF91DF914D
:10016000FF91EF91BF91AF919F918F917F916F918F
:100170005F914F913F912F910F9000925B000F90F4
:100180000FBE0F901F9018951F920F920FB60F92EF
:1001900000905B000F9211242F933F934F935F9336
:1001A0006F937F938F939F93AF93BF93EF93FF933F
:1001B000DF93CF93CDB7DEB7EBE3F0E080910B0197
:1001C0008083E5E3F0E089E8808360E472E48FE017
:1001D00090E00E946700A5E3B0E080910A01882FBB
:1001E00090E0FC01E050FF4F80818C93CF91DF9134
:1001F000FF91EF91BF91AF919F918F917F916F91FF
:100200005F914F913F912F910F9000925B000F9063
:100210000FBE0F901F901895DF93CF93CDB7DEB729
:10022000EAE3F0E08FEF8083E7E3F0E080E18083B2
:10023000E4E3F0E08FEF8083E1E3F0E0108281E01F
:1002400080930A01E8E3F0E08FEE8083A5E3B0E05D
:1002500080910A01882F90E0FC01E050FF4F8081DF
:100260008C93E2E3F0E010828EEF80930B01E9E5DE
:10027000F0E083E08083EAE6F0E08AE08083AFE5A7
:10028000B0E0EFE5F0E0808180688C9360E573EC8E
:1002900080E090E00E946700EBE3F0E080910B01CA
:1002A000808380910B01882F90E0880F991F8160D7
:1002B00080930B0180910B018F3FC9F48EEF8093E7
:1002C0000B0180910A018F5F80930A0180910A01DE
:1002D0008A3011F410920A01A5E3B0E080910A017E
:1002E000882F90E0FC01E050FF4F80818C9360E408
:1002F0007DE083E090E00E946700CECFF894FFCFCE
:0A030000C0F9A4B0999282F8809031
:00000001FF
