:100000000C9446000C94EE000C9431010C946A019F
:100010000C94A3010C9465000C9465000C9465008D
:100020000C9465000C9465000C9465000C946500BC
:100030000C9465000C9465000C9465000C946500AC
:100040000C94DD010C9465000C9465000C94650023
:100050000C9465000C9465000C9465000C9465008C
:100060000C9465000C9465000C9465000C9465007C
:100070000C9465000C9465000C9465000C9465006C
:100080000C9465000C9465000C94650011241FBE4F
:10009000CFEFD0E1DEBFCDBF11E0A0E0B1E0EEE4F4
:1000A000F4E000E00BBF02C007900D92AA30B10748
:1000B000D9F711E0AAE0B1E001C01D92AD30B1075F
:1000C000E1F70E9497000C9425020C940000DF9346
:1000D000CF93CDB7DEB789E590E02FE0FC01208318
:1000E0008AE690E02BE2FC012083CF91DF91089516
:1000F000DF93CF93CDB7DEB710920B0110920A01B8
:1001000082E590E020E7FC01208383E590E027E092
:10011000FC01208387E590E021E0FC0120838FE54E
:1001200090E020E8FC012083CF91DF910895DF93D8
:10013000CF93CDB7DEB70E9467000E947800789415
:100140008AE390E02FEFFC01208387E390E02FEF1C
:10015000FC01208384E390E02FEFFC01208381E306
:1001600090E020EFFC01208381E690E02FEFFC017E
:10017000208310920C0185E390E020910C01222F46
:1001800030E020503F4FF9012081FC01208388E3BB
:1001900090E02FE3FC01208382E690E02FE3FC0156
:1001A000208301C0000080910C01833028F08BE394
:1001B00090E023E0FC01208380910C01823029F43F
:1001C0008BE390E022E0FC01208380910C018230DF
:1001D00048F78BE390E0FC011082E5CF1F920F926D
:1001E0000FB60F9200905B000F9211242F933F9354
:1001F0008F939F93EF93FF93DF93CF93CDB7DEB7AA
:1002000080910C018F5F80930C0180910C018A30EA
:1002100011F410920C0185E390E020910C01222F43
:1002200030E020503F4FF9012081FC01208388E31A
:1002300090E02FE3FC01208382E690E02FE3FC01B5
:100240002083CF91DF91FF91EF919F918F913F910B
:100250002F910F9000925B000F900FBE0F901F9098
:1002600018951F920F920FB60F9200905B000F929D
:1002700011242F933F938F939F93EF93FF93DF93DB
:10028000CF93CDB7DEB780910C01835080930C01E2
:1002900080910C01882311F410920C0185E390E009
:1002A00020910C01222F30E020503F4FF901208196
:1002B000FC012083CF91DF91FF91EF919F918F916E
:1002C0003F912F910F9000925B000F900FBE0F9007
:1002D0001F9018951F920F920FB60F9200905B001F
:1002E0000F9211242F933F938F939F93EF93FF933C
:1002F000DF93CF93CDB7DEB780910C01825080930E
:100300000C0180910C01882311F410920C0185E3FB
:1003100090E020910C01222F30E020503F4FF90156
:100320002081FC012083CF91DF91FF91EF919F917C
:100330008F913F912F910F9000925B000F900FBE15
:100340000F901F9018951F920F920FB60F9200906A
:100350005B000F9211242F933F938F939F93EF9302
:10036000FF93DF93CF93CDB7DEB710920C0185E3F7
:1003700090E020910C01222F30E020503F4FF901F6
:100380002081FC01208388E390E02FE3FC0120839F
:1003900082E690E02FE3FC012083CF91DF91FF9173
:1003A000EF919F918F913F912F910F9000925B0061
:1003B0000F900FBE0F901F9018951F920F920FB6BF
:1003C0000F9200905B000F9211242F938F939F93B5
:1003D000EF93FF93DF93CF93CDB7DEB782E590E045
:1003E00020E7FC01208380910A0190910B01019686
:1003F00090930B0180930A0180910A0190910B0167
:10040000F1E0843F9F0791F410920B0110920A01D2
:1004100010920C0185E390E0FC01108288E390E0EB
:10042000FC01108282E690E0FC011082CF91DF9106
:10043000FF91EF919F918F912F910F9000925B0010
:0E0440000F900FBE0F901F901895F894FFCFED
:0A044E003F065B4F666D7C07FF67F9
:00000001FF
